{
  "_format": "hh-sol-artifact-1",
  "contractName": "NullsWorldCore",
  "sourceName": "contracts/v1/NullsWorldCore.sol",
  "abi": [
    {
      "inputs": [
        {
          "internalType": "address",
          "name": "router",
          "type": "address"
        }
      ],
      "stateMutability": "nonpayable",
      "type": "constructor"
    },
    {
      "anonymous": false,
      "inputs": [
        {
          "indexed": false,
          "internalType": "uint256",
          "name": "gameId",
          "type": "uint256"
        },
        {
          "indexed": false,
          "internalType": "uint256",
          "name": "scene",
          "type": "uint256"
        },
        {
          "indexed": false,
          "internalType": "uint256",
          "name": "item",
          "type": "uint256"
        },
        {
          "indexed": false,
          "internalType": "address",
          "name": "player",
          "type": "address"
        },
        {
          "indexed": false,
          "internalType": "bytes",
          "name": "rv",
          "type": "bytes"
        }
      ],
      "name": "GameWrite",
      "type": "event"
    },
    {
      "anonymous": false,
      "inputs": [
        {
          "indexed": true,
          "internalType": "address",
          "name": "previousOwner",
          "type": "address"
        },
        {
          "indexed": true,
          "internalType": "address",
          "name": "newOwner",
          "type": "address"
        }
      ],
      "name": "OwnershipTransferred",
      "type": "event"
    },
    {
      "inputs": [
        {
          "internalType": "address",
          "name": "user",
          "type": "address"
        }
      ],
      "name": "addNewItemWhiteList",
      "outputs": [],
      "stateMutability": "nonpayable",
      "type": "function"
    },
    {
      "inputs": [
        {
          "internalType": "uint256",
          "name": "itemId",
          "type": "uint256"
        },
        {
          "internalType": "bytes32",
          "name": "hv",
          "type": "bytes32"
        },
        {
          "internalType": "address",
          "name": "player",
          "type": "address"
        }
      ],
      "name": "getNonce",
      "outputs": [
        {
          "internalType": "uint256",
          "name": "nonce",
          "type": "uint256"
        }
      ],
      "stateMutability": "nonpayable",
      "type": "function"
    },
    {
      "inputs": [
        {
          "internalType": "uint256",
          "name": "sceneId",
          "type": "uint256"
        },
        {
          "internalType": "address",
          "name": "pubkey",
          "type": "address"
        }
      ],
      "name": "newItem",
      "outputs": [
        {
          "internalType": "uint256",
          "name": "itemId",
          "type": "uint256"
        }
      ],
      "stateMutability": "nonpayable",
      "type": "function"
    },
    {
      "inputs": [
        {
          "internalType": "address",
          "name": "addr",
          "type": "address"
        },
        {
          "internalType": "string",
          "name": "name",
          "type": "string"
        }
      ],
      "name": "newScene",
      "outputs": [
        {
          "internalType": "uint256",
          "name": "sceneId",
          "type": "uint256"
        }
      ],
      "stateMutability": "nonpayable",
      "type": "function"
    },
    {
      "inputs": [
        {
          "internalType": "uint256",
          "name": "item",
          "type": "uint256"
        },
        {
          "internalType": "bytes32",
          "name": "hv",
          "type": "bytes32"
        },
        {
          "internalType": "bytes32",
          "name": "rv",
          "type": "bytes32"
        }
      ],
      "name": "notify",
      "outputs": [
        {
          "internalType": "bool",
          "name": "",
          "type": "bool"
        }
      ],
      "stateMutability": "nonpayable",
      "type": "function"
    },
    {
      "inputs": [],
      "name": "owner",
      "outputs": [
        {
          "internalType": "address",
          "name": "",
          "type": "address"
        }
      ],
      "stateMutability": "view",
      "type": "function"
    },
    {
      "inputs": [
        {
          "internalType": "bytes32",
          "name": "hv",
          "type": "bytes32"
        },
        {
          "internalType": "uint256",
          "name": "deadline",
          "type": "uint256"
        },
        {
          "internalType": "uint8",
          "name": "v",
          "type": "uint8"
        },
        {
          "internalType": "bytes32",
          "name": "r",
          "type": "bytes32"
        },
        {
          "internalType": "bytes32",
          "name": "s",
          "type": "bytes32"
        }
      ],
      "name": "play",
      "outputs": [],
      "stateMutability": "nonpayable",
      "type": "function"
    },
    {
      "inputs": [
        {
          "internalType": "uint256",
          "name": "sceneId",
          "type": "uint256"
        },
        {
          "internalType": "uint256",
          "name": "itemId",
          "type": "uint256"
        },
        {
          "internalType": "uint8",
          "name": "v",
          "type": "uint8"
        },
        {
          "internalType": "bytes32",
          "name": "r",
          "type": "bytes32"
        },
        {
          "internalType": "bytes32",
          "name": "s",
          "type": "bytes32"
        },
        {
          "internalType": "bytes",
          "name": "privateKey",
          "type": "bytes"
        },
        {
          "internalType": "address",
          "name": "newPubKey",
          "type": "address"
        }
      ],
      "name": "publishAndNewItem",
      "outputs": [
        {
          "internalType": "uint256",
          "name": "newItemId",
          "type": "uint256"
        }
      ],
      "stateMutability": "nonpayable",
      "type": "function"
    },
    {
      "inputs": [
        {
          "internalType": "string",
          "name": "gameName",
          "type": "string"
        }
      ],
      "name": "registerGame",
      "outputs": [],
      "stateMutability": "nonpayable",
      "type": "function"
    },
    {
      "inputs": [],
      "name": "renounceOwnership",
      "outputs": [],
      "stateMutability": "nonpayable",
      "type": "function"
    },
    {
      "inputs": [],
      "name": "test",
      "outputs": [
        {
          "internalType": "bool",
          "name": "",
          "type": "bool"
        }
      ],
      "stateMutability": "view",
      "type": "function"
    },
    {
      "inputs": [
        {
          "internalType": "address",
          "name": "newOwner",
          "type": "address"
        }
      ],
      "name": "transferOwnership",
      "outputs": [],
      "stateMutability": "nonpayable",
      "type": "function"
    }
  ],
  "bytecode": "0x60806040526001600660006101000a81548160ff0219169083151502179055503480156200002c57600080fd5b50604051620022463803806200224683398181016040528101906200005291906200019d565b6200007262000066620000ba60201b60201c565b620000c260201b60201c565b80600260006101000a81548173ffffffffffffffffffffffffffffffffffffffff021916908373ffffffffffffffffffffffffffffffffffffffff1602179055505062000217565b600033905090565b60008060009054906101000a900473ffffffffffffffffffffffffffffffffffffffff169050816000806101000a81548173ffffffffffffffffffffffffffffffffffffffff021916908373ffffffffffffffffffffffffffffffffffffffff1602179055508173ffffffffffffffffffffffffffffffffffffffff168173ffffffffffffffffffffffffffffffffffffffff167f8be0079c531659141344cd1fd0a4f28419497f9722a3daafe3b4186f6b6457e060405160405180910390a35050565b6000815190506200019781620001fd565b92915050565b600060208284031215620001b057600080fd5b6000620001c08482850162000186565b91505092915050565b6000620001d682620001dd565b9050919050565b600073ffffffffffffffffffffffffffffffffffffffff82169050919050565b6200020881620001c9565b81146200021457600080fd5b50565b61201f80620002276000396000f3fe608060405234801561001057600080fd5b50600436106100b45760003560e01c8063b3eafe9611610071578063b3eafe961461018d578063c056ca92146101bd578063f2fde38b146101d9578063f8a8fd6d146101f5578063f937fefa14610213578063fcf21dbf14610243576100b4565b80630e349be4146100b95780636e6b1ce2146100e9578063715018a61461010557806377e100271461010f5780638da5cb5b1461013f5780639884c9f11461015d575b600080fd5b6100d360048036038101906100ce919061137c565b61025f565b6040516100e09190611a97565b60405180910390f35b61010360048036038101906100fe9190611499565b610509565b005b61010d61063f565b005b6101296004803603810190610124919061158e565b6106c7565b60405161013691906118c1565b60405180910390f35b6101476107b2565b6040516101549190611868565b60405180910390f35b6101776004803603810190610172919061153f565b6107db565b6040516101849190611a97565b60405180910390f35b6101a760048036038101906101a29190611503565b610897565b6040516101b49190611a97565b60405180910390f35b6101d760048036038101906101d29190611422565b610a46565b005b6101f360048036038101906101ee9190611317565b610b03565b005b6101fd610bfb565b60405161020a91906118c1565b60405180910390f35b61022d600480360381019061022891906115dd565b610c12565b60405161023a9190611a97565b60405180910390f35b61025d60048036038101906102589190611317565b610d75565b005b6000610269610e4c565b73ffffffffffffffffffffffffffffffffffffffff166102876107b2565b73ffffffffffffffffffffffffffffffffffffffff161480610300575060011515600760006102b4610e4c565b73ffffffffffffffffffffffffffffffffffffffff1673ffffffffffffffffffffffffffffffffffffffff16815260200190815260200160002060009054906101000a900460ff161515145b61033f576040517f08c379a0000000000000000000000000000000000000000000000000000000008152600401610336906119f7565b60405180910390fd5b600260009054906101000a900473ffffffffffffffffffffffffffffffffffffffff1673ffffffffffffffffffffffffffffffffffffffff1663cd4baf7e600354846040518363ffffffff1660e01b815260040161039e929190611b49565b602060405180830381600087803b1580156103b857600080fd5b505af11580156103cc573d6000803e3d6000fd5b505050506040513d601f19601f820116820180604052508101906103f091906114da565b90508273ffffffffffffffffffffffffffffffffffffffff1663f8a8fd6d6040518163ffffffff1660e01b8152600401602060405180830381600087803b15801561043a57600080fd5b505af115801561044e573d6000803e3d6000fd5b505050506040513d601f19601f8201168201806040525081019061047291906113d0565b6104b1576040517f08c379a00000000000000000000000000000000000000000000000000000000081526004016104a890611a57565b60405180910390fd5b826005600083815260200190815260200160002060006101000a81548173ffffffffffffffffffffffffffffffffffffffff021916908373ffffffffffffffffffffffffffffffffffffffff16021790555092915050565b610511610e4c565b73ffffffffffffffffffffffffffffffffffffffff1661052f6107b2565b73ffffffffffffffffffffffffffffffffffffffff1614610585576040517f08c379a000000000000000000000000000000000000000000000000000000000815260040161057c90611a17565b60405180910390fd5b600260009054906101000a900473ffffffffffffffffffffffffffffffffffffffff1673ffffffffffffffffffffffffffffffffffffffff1663ad6ac44e3083306040518463ffffffff1660e01b81526004016105e493929190611883565b602060405180830381600087803b1580156105fe57600080fd5b505af1158015610612573d6000803e3d6000fd5b505050506040513d601f19601f8201168201806040525081019061063691906114da565b60038190555050565b610647610e4c565b73ffffffffffffffffffffffffffffffffffffffff166106656107b2565b73ffffffffffffffffffffffffffffffffffffffff16146106bb576040517f08c379a00000000000000000000000000000000000000000000000000000000081526004016106b290611a17565b60405180910390fd5b6106c56000610e54565b565b6000806004600086815260200190815260200160002054905060006005600083815260200190815260200160002060009054906101000a900473ffffffffffffffffffffffffffffffffffffffff1690508073ffffffffffffffffffffffffffffffffffffffff166377e100278787876040518463ffffffff1660e01b815260040161075593929190611b12565b602060405180830381600087803b15801561076f57600080fd5b505af1158015610783573d6000803e3d6000fd5b505050506040513d601f19601f820116820180604052508101906107a791906113d0565b925050509392505050565b60008060009054906101000a900473ffffffffffffffffffffffffffffffffffffffff16905090565b6000600260009054906101000a900473ffffffffffffffffffffffffffffffffffffffff1673ffffffffffffffffffffffffffffffffffffffff16639884c9f18585856040518463ffffffff1660e01b815260040161083c93929190611adb565b602060405180830381600087803b15801561085657600080fd5b505af115801561086a573d6000803e3d6000fd5b505050506040513d601f19601f8201168201806040525081019061088e91906114da565b90509392505050565b60006108a1610e4c565b73ffffffffffffffffffffffffffffffffffffffff166108bf6107b2565b73ffffffffffffffffffffffffffffffffffffffff161480610938575060011515600760006108ec610e4c565b73ffffffffffffffffffffffffffffffffffffffff1673ffffffffffffffffffffffffffffffffffffffff16815260200190815260200160002060009054906101000a900460ff161515145b610977576040517f08c379a000000000000000000000000000000000000000000000000000000000815260040161096e906119f7565b60405180910390fd5b600260009054906101000a900473ffffffffffffffffffffffffffffffffffffffff1673ffffffffffffffffffffffffffffffffffffffff1663b242448e84846040518363ffffffff1660e01b81526004016109d4929190611ab2565b602060405180830381600087803b1580156109ee57600080fd5b505af1158015610a02573d6000803e3d6000fd5b505050506040513d601f19601f82011682018060405250810190610a2691906114da565b905082600460008381526020019081526020016000208190555092915050565b600260009054906101000a900473ffffffffffffffffffffffffffffffffffffffff1673ffffffffffffffffffffffffffffffffffffffff1663c056ca9286868686866040518663ffffffff1660e01b8152600401610aa99594939291906118dc565b602060405180830381600087803b158015610ac357600080fd5b505af1158015610ad7573d6000803e3d6000fd5b505050506040513d601f19601f82011682018060405250810190610afb91906113f9565b505050505050565b610b0b610e4c565b73ffffffffffffffffffffffffffffffffffffffff16610b296107b2565b73ffffffffffffffffffffffffffffffffffffffff1614610b7f576040517f08c379a0000000000000000000000000000000000000000000000000000000008152600401610b7690611a17565b60405180910390fd5b600073ffffffffffffffffffffffffffffffffffffffff168173ffffffffffffffffffffffffffffffffffffffff161415610bef576040517f08c379a0000000000000000000000000000000000000000000000000000000008152600401610be6906119d7565b60405180910390fd5b610bf881610e54565b50565b6000600660009054906101000a900460ff16905090565b6000610c1c610e4c565b73ffffffffffffffffffffffffffffffffffffffff16610c3a6107b2565b73ffffffffffffffffffffffffffffffffffffffff1614610c90576040517f08c379a0000000000000000000000000000000000000000000000000000000008152600401610c8790611a17565b60405180910390fd5b610c9d8787878787610f18565b600260009054906101000a900473ffffffffffffffffffffffffffffffffffffffff1673ffffffffffffffffffffffffffffffffffffffff16638a1b8d30898986866040518563ffffffff1660e01b8152600401610cfe9493929190611b79565b602060405180830381600087803b158015610d1857600080fd5b505af1158015610d2c573d6000803e3d6000fd5b505050506040513d601f19601f82011682018060405250810190610d5091906114da565b9050876004600083815260200190815260200160002081905550979650505050505050565b610d7d610e4c565b73ffffffffffffffffffffffffffffffffffffffff16610d9b6107b2565b73ffffffffffffffffffffffffffffffffffffffff1614610df1576040517f08c379a0000000000000000000000000000000000000000000000000000000008152600401610de890611a17565b60405180910390fd5b6001600760008373ffffffffffffffffffffffffffffffffffffffff1673ffffffffffffffffffffffffffffffffffffffff16815260200190815260200160002060006101000a81548160ff02191690831515021790555050565b600033905090565b60008060009054906101000a900473ffffffffffffffffffffffffffffffffffffffff169050816000806101000a81548173ffffffffffffffffffffffffffffffffffffffff021916908373ffffffffffffffffffffffffffffffffffffffff1602179055508173ffffffffffffffffffffffffffffffffffffffff168173ffffffffffffffffffffffffffffffffffffffff167f8be0079c531659141344cd1fd0a4f28419497f9722a3daafe3b4186f6b6457e060405160405180910390a35050565b6000600260009054906101000a900473ffffffffffffffffffffffffffffffffffffffff1673ffffffffffffffffffffffffffffffffffffffff1663b2c471ad876040518263ffffffff1660e01b8152600401610f759190611a97565b604080518083038186803b158015610f8c57600080fd5b505afa158015610fa0573d6000803e3d6000fd5b505050506040513d601f19601f82011682018060405250810190610fc49190611340565b915050600073ffffffffffffffffffffffffffffffffffffffff168173ffffffffffffffffffffffffffffffffffffffff161415611037576040517f08c379a000000000000000000000000000000000000000000000000000000000815260040161102e90611a77565b60405180910390fd5b6000824660405160200161104c929190611974565b604051602081830303815290604052805190602001209050600060018288888860405160008152602001604052604051611089949392919061192f565b6020604051602081039080840390855afa1580156110ab573d6000803e3d6000fd5b505050602060405103519050600073ffffffffffffffffffffffffffffffffffffffff168173ffffffffffffffffffffffffffffffffffffffff161415611127576040517f08c379a000000000000000000000000000000000000000000000000000000000815260040161111e90611a37565b60405180910390fd5b8273ffffffffffffffffffffffffffffffffffffffff168173ffffffffffffffffffffffffffffffffffffffff1614611195576040517f08c379a000000000000000000000000000000000000000000000000000000000815260040161118c906119b7565b60405180910390fd5b5050505050505050565b60006111b26111ad84611bea565b611bc5565b9050828152602081018484840111156111ca57600080fd5b6111d5848285611ce3565b509392505050565b60006111f06111eb84611c1b565b611bc5565b90508281526020810184848401111561120857600080fd5b611213848285611ce3565b509392505050565b60008135905061122a81611f76565b92915050565b60008151905061123f81611f76565b92915050565b60008151905061125481611f8d565b92915050565b60008135905061126981611fa4565b92915050565b60008151905061127e81611fa4565b92915050565b600082601f83011261129557600080fd5b81356112a584826020860161119f565b91505092915050565b600082601f8301126112bf57600080fd5b81356112cf8482602086016111dd565b91505092915050565b6000813590506112e781611fbb565b92915050565b6000815190506112fc81611fbb565b92915050565b60008135905061131181611fd2565b92915050565b60006020828403121561132957600080fd5b60006113378482850161121b565b91505092915050565b6000806040838503121561135357600080fd5b600061136185828601611230565b925050602061137285828601611230565b9150509250929050565b6000806040838503121561138f57600080fd5b600061139d8582860161121b565b925050602083013567ffffffffffffffff8111156113ba57600080fd5b6113c6858286016112ae565b9150509250929050565b6000602082840312156113e257600080fd5b60006113f084828501611245565b91505092915050565b60006020828403121561140b57600080fd5b60006114198482850161126f565b91505092915050565b600080600080600060a0868803121561143a57600080fd5b60006114488882890161125a565b9550506020611459888289016112d8565b945050604061146a88828901611302565b935050606061147b8882890161125a565b925050608061148c8882890161125a565b9150509295509295909350565b6000602082840312156114ab57600080fd5b600082013567ffffffffffffffff8111156114c557600080fd5b6114d1848285016112ae565b91505092915050565b6000602082840312156114ec57600080fd5b60006114fa848285016112ed565b91505092915050565b6000806040838503121561151657600080fd5b6000611524858286016112d8565b92505060206115358582860161121b565b9150509250929050565b60008060006060848603121561155457600080fd5b6000611562868287016112d8565b93505060206115738682870161125a565b92505060406115848682870161121b565b9150509250925092565b6000806000606084860312156115a357600080fd5b60006115b1868287016112d8565b93505060206115c28682870161125a565b92505060406115d38682870161125a565b9150509250925092565b600080600080600080600060e0888a0312156115f857600080fd5b60006116068a828b016112d8565b97505060206116178a828b016112d8565b96505060406116288a828b01611302565b95505060606116398a828b0161125a565b945050608061164a8a828b0161125a565b93505060a088013567ffffffffffffffff81111561166757600080fd5b6116738a828b01611284565b92505060c06116848a828b0161121b565b91505092959891949750929550565b61169c81611c84565b82525050565b6116ab81611c96565b82525050565b6116ba81611ca2565b82525050565b60006116cb82611c4c565b6116d58185611c62565b93506116e5818560208601611cf2565b6116ee81611d85565b840191505092915050565b600061170482611c57565b61170e8185611c73565b935061171e818560208601611cf2565b61172781611d85565b840191505092915050565b600061173f601083611c73565b915061174a82611d96565b602082019050919050565b6000611762602283611c73565b915061176d82611dbf565b604082019050919050565b6000611785602683611c73565b915061179082611e0e565b604082019050919050565b60006117a8602e83611c73565b91506117b382611e5d565b604082019050919050565b60006117cb602083611c73565b91506117d682611eac565b602082019050919050565b60006117ee601f83611c73565b91506117f982611ed5565b602082019050919050565b6000611811602e83611c73565b915061181c82611efe565b604082019050919050565b6000611834601d83611c73565b915061183f82611f4d565b602082019050919050565b61185381611ccc565b82525050565b61186281611cd6565b82525050565b600060208201905061187d6000830184611693565b92915050565b60006060820190506118986000830186611693565b81810360208301526118aa81856116f9565b90506118b96040830184611693565b949350505050565b60006020820190506118d660008301846116a2565b92915050565b600060a0820190506118f160008301886116b1565b6118fe602083018761184a565b61190b6040830186611859565b61191860608301856116b1565b61192560808301846116b1565b9695505050505050565b600060808201905061194460008301876116b1565b6119516020830186611859565b61195e60408301856116b1565b61196b60608301846116b1565b95945050505050565b6000606082019050818103600083015261198d81611732565b905081810360208301526119a181856116c0565b90506119b0604083018461184a565b9392505050565b600060208201905081810360008301526119d081611755565b9050919050565b600060208201905081810360008301526119f081611778565b9050919050565b60006020820190508181036000830152611a108161179b565b9050919050565b60006020820190508181036000830152611a30816117be565b9050919050565b60006020820190508181036000830152611a50816117e1565b9050919050565b60006020820190508181036000830152611a7081611804565b9050919050565b60006020820190508181036000830152611a9081611827565b9050919050565b6000602082019050611aac600083018461184a565b92915050565b6000604082019050611ac7600083018561184a565b611ad46020830184611693565b9392505050565b6000606082019050611af0600083018661184a565b611afd60208301856116b1565b611b0a6040830184611693565b949350505050565b6000606082019050611b27600083018661184a565b611b3460208301856116b1565b611b4160408301846116b1565b949350505050565b6000604082019050611b5e600083018561184a565b8181036020830152611b7081846116f9565b90509392505050565b6000608082019050611b8e600083018761184a565b611b9b602083018661184a565b8181036040830152611bad81856116c0565b9050611bbc6060830184611693565b95945050505050565b6000611bcf611be0565b9050611bdb8282611d25565b919050565b6000604051905090565b600067ffffffffffffffff821115611c0557611c04611d56565b5b611c0e82611d85565b9050602081019050919050565b600067ffffffffffffffff821115611c3657611c35611d56565b5b611c3f82611d85565b9050602081019050919050565b600081519050919050565b600081519050919050565b600082825260208201905092915050565b600082825260208201905092915050565b6000611c8f82611cac565b9050919050565b60008115159050919050565b6000819050919050565b600073ffffffffffffffffffffffffffffffffffffffff82169050919050565b6000819050919050565b600060ff82169050919050565b82818337600083830152505050565b60005b83811015611d10578082015181840152602081019050611cf5565b83811115611d1f576000848401525b50505050565b611d2e82611d85565b810181811067ffffffffffffffff82111715611d4d57611d4c611d56565b5b80604052505050565b7f4e487b7100000000000000000000000000000000000000000000000000000000600052604160045260246000fd5b6000601f19601f8301169050919050565b7f6e756c6c732e776f726c642d636f726500000000000000000000000000000000600082015250565b7f4e756c6c73576f726c64436f72652f4e6f206d61746368207075626c69636b6560008201527f792e000000000000000000000000000000000000000000000000000000000000602082015250565b7f4f776e61626c653a206e6577206f776e657220697320746865207a65726f206160008201527f6464726573730000000000000000000000000000000000000000000000000000602082015250565b7f4f776e61626c653a2063616c6c6572206973206e6f7420746865206f776e657260008201527f206f72207768697465206c697374000000000000000000000000000000000000602082015250565b7f4f776e61626c653a2063616c6c6572206973206e6f7420746865206f776e6572600082015250565b7f4e756c6c73576f726c64436f72652f57726f6e67207369676e61747572652e00600082015250565b7f4e756c6c73576f726c64436f72652f4e65656420746f20657874656e6420494f60008201527f6e6c696e6547616d652e736f6c20000000000000000000000000000000000000602082015250565b7f4e756c6c73576f726c64436f72652f4e6f207075626c6963206b65792e000000600082015250565b611f7f81611c84565b8114611f8a57600080fd5b50565b611f9681611c96565b8114611fa157600080fd5b50565b611fad81611ca2565b8114611fb857600080fd5b50565b611fc481611ccc565b8114611fcf57600080fd5b50565b611fdb81611cd6565b8114611fe657600080fd5b5056fea2646970667358221220b37574389225020eb52e401bce48420bad0093f9fbabc49ac4ab7b29bb90489c64736f6c63430008040033",
  "linkReferences": {},
  "deployedLinkReferences": {}
}