{
  "_format": "hh-sol-artifact-1",
  "contractName": "NullsPetToken",
  "sourceName": "contracts/v1/NullsPetToken.sol",
  "abi": [
    {
      "inputs": [],
      "stateMutability": "nonpayable",
      "type": "constructor"
    },
    {
      "anonymous": false,
      "inputs": [
        {
          "indexed": true,
          "internalType": "address",
          "name": "owner",
          "type": "address"
        },
        {
          "indexed": true,
          "internalType": "address",
          "name": "approved",
          "type": "address"
        },
        {
          "indexed": true,
          "internalType": "uint256",
          "name": "tokenId",
          "type": "uint256"
        }
      ],
      "name": "Approval",
      "type": "event"
    },
    {
      "anonymous": false,
      "inputs": [
        {
          "indexed": true,
          "internalType": "address",
          "name": "owner",
          "type": "address"
        },
        {
          "indexed": true,
          "internalType": "address",
          "name": "operator",
          "type": "address"
        },
        {
          "indexed": false,
          "internalType": "bool",
          "name": "approved",
          "type": "bool"
        }
      ],
      "name": "ApprovalForAll",
      "type": "event"
    },
    {
      "anonymous": false,
      "inputs": [
        {
          "indexed": true,
          "internalType": "address",
          "name": "previousOwner",
          "type": "address"
        },
        {
          "indexed": true,
          "internalType": "address",
          "name": "newOwner",
          "type": "address"
        }
      ],
      "name": "OwnershipTransferred",
      "type": "event"
    },
    {
      "anonymous": false,
      "inputs": [
        {
          "indexed": true,
          "internalType": "address",
          "name": "from",
          "type": "address"
        },
        {
          "indexed": true,
          "internalType": "address",
          "name": "to",
          "type": "address"
        },
        {
          "indexed": true,
          "internalType": "uint256",
          "name": "tokenId",
          "type": "uint256"
        }
      ],
      "name": "Transfer",
      "type": "event"
    },
    {
      "inputs": [
        {
          "internalType": "uint256",
          "name": "",
          "type": "uint256"
        }
      ],
      "name": "Types",
      "outputs": [
        {
          "internalType": "uint8",
          "name": "",
          "type": "uint8"
        }
      ],
      "stateMutability": "view",
      "type": "function"
    },
    {
      "inputs": [
        {
          "internalType": "address",
          "name": "to",
          "type": "address"
        },
        {
          "internalType": "uint256",
          "name": "tokenId",
          "type": "uint256"
        }
      ],
      "name": "approve",
      "outputs": [],
      "stateMutability": "nonpayable",
      "type": "function"
    },
    {
      "inputs": [
        {
          "internalType": "address",
          "name": "owner",
          "type": "address"
        }
      ],
      "name": "balanceOf",
      "outputs": [
        {
          "internalType": "uint256",
          "name": "",
          "type": "uint256"
        }
      ],
      "stateMutability": "view",
      "type": "function"
    },
    {
      "inputs": [
        {
          "internalType": "uint256",
          "name": "tokenId",
          "type": "uint256"
        }
      ],
      "name": "getApproved",
      "outputs": [
        {
          "internalType": "address",
          "name": "",
          "type": "address"
        }
      ],
      "stateMutability": "view",
      "type": "function"
    },
    {
      "inputs": [
        {
          "internalType": "address",
          "name": "owner",
          "type": "address"
        },
        {
          "internalType": "address",
          "name": "operator",
          "type": "address"
        }
      ],
      "name": "isApprovedForAll",
      "outputs": [
        {
          "internalType": "bool",
          "name": "",
          "type": "bool"
        }
      ],
      "stateMutability": "view",
      "type": "function"
    },
    {
      "inputs": [
        {
          "internalType": "address",
          "name": "player",
          "type": "address"
        },
        {
          "internalType": "uint8",
          "name": "tv",
          "type": "uint8"
        }
      ],
      "name": "mint",
      "outputs": [
        {
          "internalType": "uint256",
          "name": "tokenId",
          "type": "uint256"
        }
      ],
      "stateMutability": "nonpayable",
      "type": "function"
    },
    {
      "inputs": [
        {
          "internalType": "address",
          "name": "oper",
          "type": "address"
        }
      ],
      "name": "modifyOper",
      "outputs": [],
      "stateMutability": "nonpayable",
      "type": "function"
    },
    {
      "inputs": [],
      "name": "name",
      "outputs": [
        {
          "internalType": "string",
          "name": "",
          "type": "string"
        }
      ],
      "stateMutability": "view",
      "type": "function"
    },
    {
      "inputs": [],
      "name": "owner",
      "outputs": [
        {
          "internalType": "address",
          "name": "",
          "type": "address"
        }
      ],
      "stateMutability": "view",
      "type": "function"
    },
    {
      "inputs": [
        {
          "internalType": "uint256",
          "name": "tokenId",
          "type": "uint256"
        }
      ],
      "name": "ownerOf",
      "outputs": [
        {
          "internalType": "address",
          "name": "",
          "type": "address"
        }
      ],
      "stateMutability": "view",
      "type": "function"
    },
    {
      "inputs": [],
      "name": "renounceOwnership",
      "outputs": [],
      "stateMutability": "nonpayable",
      "type": "function"
    },
    {
      "inputs": [
        {
          "internalType": "address",
          "name": "from",
          "type": "address"
        },
        {
          "internalType": "address",
          "name": "to",
          "type": "address"
        },
        {
          "internalType": "uint256",
          "name": "tokenId",
          "type": "uint256"
        }
      ],
      "name": "safeTransferFrom",
      "outputs": [],
      "stateMutability": "nonpayable",
      "type": "function"
    },
    {
      "inputs": [
        {
          "internalType": "address",
          "name": "from",
          "type": "address"
        },
        {
          "internalType": "address",
          "name": "to",
          "type": "address"
        },
        {
          "internalType": "uint256",
          "name": "tokenId",
          "type": "uint256"
        },
        {
          "internalType": "bytes",
          "name": "_data",
          "type": "bytes"
        }
      ],
      "name": "safeTransferFrom",
      "outputs": [],
      "stateMutability": "nonpayable",
      "type": "function"
    },
    {
      "inputs": [
        {
          "internalType": "address",
          "name": "operator",
          "type": "address"
        },
        {
          "internalType": "bool",
          "name": "approved",
          "type": "bool"
        }
      ],
      "name": "setApprovalForAll",
      "outputs": [],
      "stateMutability": "nonpayable",
      "type": "function"
    },
    {
      "inputs": [
        {
          "internalType": "string",
          "name": "uri",
          "type": "string"
        }
      ],
      "name": "setBaseURI",
      "outputs": [],
      "stateMutability": "nonpayable",
      "type": "function"
    },
    {
      "inputs": [],
      "name": "symbol",
      "outputs": [
        {
          "internalType": "string",
          "name": "",
          "type": "string"
        }
      ],
      "stateMutability": "view",
      "type": "function"
    },
    {
      "inputs": [
        {
          "internalType": "uint256",
          "name": "tokenId",
          "type": "uint256"
        }
      ],
      "name": "tokenURI",
      "outputs": [
        {
          "internalType": "string",
          "name": "",
          "type": "string"
        }
      ],
      "stateMutability": "view",
      "type": "function"
    },
    {
      "inputs": [
        {
          "internalType": "address",
          "name": "from",
          "type": "address"
        },
        {
          "internalType": "address",
          "name": "to",
          "type": "address"
        },
        {
          "internalType": "uint256",
          "name": "tokenId",
          "type": "uint256"
        }
      ],
      "name": "transferFrom",
      "outputs": [],
      "stateMutability": "nonpayable",
      "type": "function"
    },
    {
      "inputs": [
        {
          "internalType": "address",
          "name": "newOwner",
          "type": "address"
        }
      ],
      "name": "transferOwnership",
      "outputs": [],
      "stateMutability": "nonpayable",
      "type": "function"
    }
  ],
  "bytecode": "0x60806040526040518060400160405280601981526020017f68747470733a2f2f6e756c6c732e776f726c642f706574732f00000000000000815250600990805190602001906200005192919062000235565b503480156200005f57600080fd5b506040518060400160405280600d81526020017f4e756c6c73506574546f6b656e000000000000000000000000000000000000008152506040518060400160405280600881526020017f4e756c6c735065740000000000000000000000000000000000000000000000008152508160009080519060200190620000e492919062000235565b508060019080519060200190620000fd92919062000235565b50505062000120620001146200016760201b60201c565b6200016f60201b60201c565b33600860006101000a81548173ffffffffffffffffffffffffffffffffffffffff021916908373ffffffffffffffffffffffffffffffffffffffff1602179055506200034a565b600033905090565b6000600660009054906101000a900473ffffffffffffffffffffffffffffffffffffffff16905081600660006101000a81548173ffffffffffffffffffffffffffffffffffffffff021916908373ffffffffffffffffffffffffffffffffffffffff1602179055508173ffffffffffffffffffffffffffffffffffffffff168173ffffffffffffffffffffffffffffffffffffffff167f8be0079c531659141344cd1fd0a4f28419497f9722a3daafe3b4186f6b6457e060405160405180910390a35050565b8280546200024390620002e5565b90600052602060002090601f016020900481019282620002675760008555620002b3565b82601f106200028257805160ff1916838001178555620002b3565b82800160010185558215620002b3579182015b82811115620002b257825182559160200191906001019062000295565b5b509050620002c29190620002c6565b5090565b5b80821115620002e1576000816000905550600101620002c7565b5090565b60006002820490506001821680620002fe57607f821691505b602082108114156200031557620003146200031b565b5b50919050565b7f4e487b7100000000000000000000000000000000000000000000000000000000600052602260045260246000fd5b612ebd806200035a6000396000f3fe608060405234801561001057600080fd5b50600436106101215760003560e01c806370a08231116100ad578063a22cb46511610071578063a22cb46514610306578063b88d4fde14610322578063c87b56dd1461033e578063e985e9c51461036e578063f2fde38b1461039e57610121565b806370a0823114610260578063715018a6146102905780637ed418651461029a5780638da5cb5b146102ca57806395d89b41146102e857610121565b806342842e0e116100f457806342842e0e146101ac57806355f804b3146101c85780635a898fbb146101e45780636352211e14610200578063691562a01461023057610121565b806306fdde0314610126578063081812fc14610144578063095ea7b31461017457806323b872dd14610190575b600080fd5b61012e6103ba565b60405161013b9190612329565b60405180910390f35b61015e60048036038101906101599190611f28565b61044c565b60405161016b91906122a7565b60405180910390f35b61018e60048036038101906101899190611e46565b6104d1565b005b6101aa60048036038101906101a59190611d40565b6105e9565b005b6101c660048036038101906101c19190611d40565b610649565b005b6101e260048036038101906101dd9190611ee7565b610669565b005b6101fe60048036038101906101f99190611cdb565b6106ff565b005b61021a60048036038101906102159190611f28565b6107bf565b60405161022791906122a7565b60405180910390f35b61024a60048036038101906102459190611e82565b610871565b604051610257919061256b565b60405180910390f35b61027a60048036038101906102759190611cdb565b610949565b604051610287919061256b565b60405180910390f35b610298610a01565b005b6102b460048036038101906102af9190611f28565b610a89565b6040516102c19190612586565b60405180910390f35b6102d2610aa9565b6040516102df91906122a7565b60405180910390f35b6102f0610ad3565b6040516102fd9190612329565b60405180910390f35b610320600480360381019061031b9190611e0a565b610b65565b005b61033c60048036038101906103379190611d8f565b610ce6565b005b61035860048036038101906103539190611f28565b610d48565b6040516103659190612329565b60405180910390f35b61038860048036038101906103839190611d04565b610def565b604051610395919061230e565b60405180910390f35b6103b860048036038101906103b39190611cdb565b610e83565b005b6060600080546103c9906127e9565b80601f01602080910402602001604051908101604052809291908181526020018280546103f5906127e9565b80156104425780601f1061041757610100808354040283529160200191610442565b820191906000526020600020905b81548152906001019060200180831161042557829003601f168201915b5050505050905090565b600061045782610f7b565b610496576040517f08c379a000000000000000000000000000000000000000000000000000000000815260040161048d9061248b565b60405180910390fd5b6004600083815260200190815260200160002060009054906101000a900473ffffffffffffffffffffffffffffffffffffffff169050919050565b60006104dc826107bf565b90508073ffffffffffffffffffffffffffffffffffffffff168373ffffffffffffffffffffffffffffffffffffffff16141561054d576040517f08c379a00000000000000000000000000000000000000000000000000000000081526004016105449061252b565b60405180910390fd5b8073ffffffffffffffffffffffffffffffffffffffff1661056c610fe7565b73ffffffffffffffffffffffffffffffffffffffff16148061059b575061059a81610595610fe7565b610def565b5b6105da576040517f08c379a00000000000000000000000000000000000000000000000000000000081526004016105d19061240b565b60405180910390fd5b6105e48383610fef565b505050565b6105fa6105f4610fe7565b826110a8565b610639576040517f08c379a00000000000000000000000000000000000000000000000000000000081526004016106309061254b565b60405180910390fd5b610644838383611186565b505050565b61066483838360405180602001604052806000815250610ce6565b505050565b610671610fe7565b73ffffffffffffffffffffffffffffffffffffffff1661068f610aa9565b73ffffffffffffffffffffffffffffffffffffffff16146106e5576040517f08c379a00000000000000000000000000000000000000000000000000000000081526004016106dc906124ab565b60405180910390fd5b80600990805190602001906106fb929190611aff565b5050565b610707610fe7565b73ffffffffffffffffffffffffffffffffffffffff16610725610aa9565b73ffffffffffffffffffffffffffffffffffffffff161461077b576040517f08c379a0000000000000000000000000000000000000000000000000000000008152600401610772906124ab565b60405180910390fd5b80600860006101000a81548173ffffffffffffffffffffffffffffffffffffffff021916908373ffffffffffffffffffffffffffffffffffffffff16021790555050565b6000806002600084815260200190815260200160002060009054906101000a900473ffffffffffffffffffffffffffffffffffffffff169050600073ffffffffffffffffffffffffffffffffffffffff168173ffffffffffffffffffffffffffffffffffffffff161415610868576040517f08c379a000000000000000000000000000000000000000000000000000000000815260040161085f9061244b565b60405180910390fd5b80915050919050565b6000600860009054906101000a900473ffffffffffffffffffffffffffffffffffffffff1673ffffffffffffffffffffffffffffffffffffffff163373ffffffffffffffffffffffffffffffffffffffff1614610903576040517f08c379a00000000000000000000000000000000000000000000000000000000081526004016108fa906124cb565b60405180910390fd5b61090b6113e2565b905081600a600083815260200190815260200160002060006101000a81548160ff021916908360ff16021790555061094383826113fd565b92915050565b60008073ffffffffffffffffffffffffffffffffffffffff168273ffffffffffffffffffffffffffffffffffffffff1614156109ba576040517f08c379a00000000000000000000000000000000000000000000000000000000081526004016109b19061242b565b60405180910390fd5b600360008373ffffffffffffffffffffffffffffffffffffffff1673ffffffffffffffffffffffffffffffffffffffff168152602001908152602001600020549050919050565b610a09610fe7565b73ffffffffffffffffffffffffffffffffffffffff16610a27610aa9565b73ffffffffffffffffffffffffffffffffffffffff1614610a7d576040517f08c379a0000000000000000000000000000000000000000000000000000000008152600401610a74906124ab565b60405180910390fd5b610a8760006115cb565b565b600a6020528060005260406000206000915054906101000a900460ff1681565b6000600660009054906101000a900473ffffffffffffffffffffffffffffffffffffffff16905090565b606060018054610ae2906127e9565b80601f0160208091040260200160405190810160405280929190818152602001828054610b0e906127e9565b8015610b5b5780601f10610b3057610100808354040283529160200191610b5b565b820191906000526020600020905b815481529060010190602001808311610b3e57829003601f168201915b5050505050905090565b610b6d610fe7565b73ffffffffffffffffffffffffffffffffffffffff168273ffffffffffffffffffffffffffffffffffffffff161415610bdb576040517f08c379a0000000000000000000000000000000000000000000000000000000008152600401610bd2906123cb565b60405180910390fd5b8060056000610be8610fe7565b73ffffffffffffffffffffffffffffffffffffffff1673ffffffffffffffffffffffffffffffffffffffff16815260200190815260200160002060008473ffffffffffffffffffffffffffffffffffffffff1673ffffffffffffffffffffffffffffffffffffffff16815260200190815260200160002060006101000a81548160ff0219169083151502179055508173ffffffffffffffffffffffffffffffffffffffff16610c95610fe7565b73ffffffffffffffffffffffffffffffffffffffff167f17307eab39ab6107e8899845ad3d59bd9653f200f220920489ca2b5937696c3183604051610cda919061230e565b60405180910390a35050565b610cf7610cf1610fe7565b836110a8565b610d36576040517f08c379a0000000000000000000000000000000000000000000000000000000008152600401610d2d9061254b565b60405180910390fd5b610d4284848484611691565b50505050565b6060610d5382610f7b565b610d92576040517f08c379a0000000000000000000000000000000000000000000000000000000008152600401610d899061250b565b60405180910390fd5b6000610d9c6116ed565b90506000815111610dbc5760405180602001604052806000815250610de7565b80610dc68461177f565b604051602001610dd7929190612283565b6040516020818303038152906040525b915050919050565b6000600560008473ffffffffffffffffffffffffffffffffffffffff1673ffffffffffffffffffffffffffffffffffffffff16815260200190815260200160002060008373ffffffffffffffffffffffffffffffffffffffff1673ffffffffffffffffffffffffffffffffffffffff16815260200190815260200160002060009054906101000a900460ff16905092915050565b610e8b610fe7565b73ffffffffffffffffffffffffffffffffffffffff16610ea9610aa9565b73ffffffffffffffffffffffffffffffffffffffff1614610eff576040517f08c379a0000000000000000000000000000000000000000000000000000000008152600401610ef6906124ab565b60405180910390fd5b600073ffffffffffffffffffffffffffffffffffffffff168173ffffffffffffffffffffffffffffffffffffffff161415610f6f576040517f08c379a0000000000000000000000000000000000000000000000000000000008152600401610f669061236b565b60405180910390fd5b610f78816115cb565b50565b60008073ffffffffffffffffffffffffffffffffffffffff166002600084815260200190815260200160002060009054906101000a900473ffffffffffffffffffffffffffffffffffffffff1673ffffffffffffffffffffffffffffffffffffffff1614159050919050565b600033905090565b816004600083815260200190815260200160002060006101000a81548173ffffffffffffffffffffffffffffffffffffffff021916908373ffffffffffffffffffffffffffffffffffffffff160217905550808273ffffffffffffffffffffffffffffffffffffffff16611062836107bf565b73ffffffffffffffffffffffffffffffffffffffff167f8c5be1e5ebec7d5bd14f71427d1e84f3dd0314c0f7b2291e5b200ac8c7c3b92560405160405180910390a45050565b60006110b382610f7b565b6110f2576040517f08c379a00000000000000000000000000000000000000000000000000000000081526004016110e9906123eb565b60405180910390fd5b60006110fd836107bf565b90508073ffffffffffffffffffffffffffffffffffffffff168473ffffffffffffffffffffffffffffffffffffffff16148061116c57508373ffffffffffffffffffffffffffffffffffffffff166111548461044c565b73ffffffffffffffffffffffffffffffffffffffff16145b8061117d575061117c8185610def565b5b91505092915050565b8273ffffffffffffffffffffffffffffffffffffffff166111a6826107bf565b73ffffffffffffffffffffffffffffffffffffffff16146111fc576040517f08c379a00000000000000000000000000000000000000000000000000000000081526004016111f3906124eb565b60405180910390fd5b600073ffffffffffffffffffffffffffffffffffffffff168273ffffffffffffffffffffffffffffffffffffffff16141561126c576040517f08c379a0000000000000000000000000000000000000000000000000000000008152600401611263906123ab565b60405180910390fd5b61127783838361192c565b611282600082610fef565b6001600360008573ffffffffffffffffffffffffffffffffffffffff1673ffffffffffffffffffffffffffffffffffffffff16815260200190815260200160002060008282546112d291906126f2565b925050819055506001600360008473ffffffffffffffffffffffffffffffffffffffff1673ffffffffffffffffffffffffffffffffffffffff1681526020019081526020016000206000828254611329919061266b565b92505081905550816002600083815260200190815260200160002060006101000a81548173ffffffffffffffffffffffffffffffffffffffff021916908373ffffffffffffffffffffffffffffffffffffffff160217905550808273ffffffffffffffffffffffffffffffffffffffff168473ffffffffffffffffffffffffffffffffffffffff167fddf252ad1be2c89b69c2b068fc378daa952ba7f163c4a11628f55a4df523b3ef60405160405180910390a4505050565b60006113ee6007611931565b90506113fa600761193f565b90565b600073ffffffffffffffffffffffffffffffffffffffff168273ffffffffffffffffffffffffffffffffffffffff16141561146d576040517f08c379a00000000000000000000000000000000000000000000000000000000081526004016114649061246b565b60405180910390fd5b61147681610f7b565b156114b6576040517f08c379a00000000000000000000000000000000000000000000000000000000081526004016114ad9061238b565b60405180910390fd5b6114c26000838361192c565b6001600360008473ffffffffffffffffffffffffffffffffffffffff1673ffffffffffffffffffffffffffffffffffffffff1681526020019081526020016000206000828254611512919061266b565b92505081905550816002600083815260200190815260200160002060006101000a81548173ffffffffffffffffffffffffffffffffffffffff021916908373ffffffffffffffffffffffffffffffffffffffff160217905550808273ffffffffffffffffffffffffffffffffffffffff16600073ffffffffffffffffffffffffffffffffffffffff167fddf252ad1be2c89b69c2b068fc378daa952ba7f163c4a11628f55a4df523b3ef60405160405180910390a45050565b6000600660009054906101000a900473ffffffffffffffffffffffffffffffffffffffff16905081600660006101000a81548173ffffffffffffffffffffffffffffffffffffffff021916908373ffffffffffffffffffffffffffffffffffffffff1602179055508173ffffffffffffffffffffffffffffffffffffffff168173ffffffffffffffffffffffffffffffffffffffff167f8be0079c531659141344cd1fd0a4f28419497f9722a3daafe3b4186f6b6457e060405160405180910390a35050565b61169c848484611186565b6116a884848484611955565b6116e7576040517f08c379a00000000000000000000000000000000000000000000000000000000081526004016116de9061234b565b60405180910390fd5b50505050565b6060600980546116fc906127e9565b80601f0160208091040260200160405190810160405280929190818152602001828054611728906127e9565b80156117755780601f1061174a57610100808354040283529160200191611775565b820191906000526020600020905b81548152906001019060200180831161175857829003601f168201915b5050505050905090565b606060008214156117c7576040518060400160405280600181526020017f30000000000000000000000000000000000000000000000000000000000000008152509050611927565b600082905060005b600082146117f95780806117e29061284c565b915050600a826117f291906126c1565b91506117cf565b60008167ffffffffffffffff81111561183b577f4e487b7100000000000000000000000000000000000000000000000000000000600052604160045260246000fd5b6040519080825280601f01601f19166020018201604052801561186d5781602001600182028036833780820191505090505b5090505b600085146119205760018261188691906126f2565b9150600a856118959190612895565b60306118a1919061266b565b60f81b8183815181106118dd577f4e487b7100000000000000000000000000000000000000000000000000000000600052603260045260246000fd5b60200101907effffffffffffffffffffffffffffffffffffffffffffffffffffffffffffff1916908160001a905350600a8561191991906126c1565b9450611871565b8093505050505b919050565b505050565b600081600001549050919050565b6001816000016000828254019250508190555050565b60006119768473ffffffffffffffffffffffffffffffffffffffff16611aec565b15611adf578373ffffffffffffffffffffffffffffffffffffffff1663150b7a0261199f610fe7565b8786866040518563ffffffff1660e01b81526004016119c194939291906122c2565b602060405180830381600087803b1580156119db57600080fd5b505af1925050508015611a0c57506040513d601f19601f82011682018060405250810190611a099190611ebe565b60015b611a8f573d8060008114611a3c576040519150601f19603f3d011682016040523d82523d6000602084013e611a41565b606091505b50600081511415611a87576040517f08c379a0000000000000000000000000000000000000000000000000000000008152600401611a7e9061234b565b60405180910390fd5b805181602001fd5b63150b7a0260e01b7bffffffffffffffffffffffffffffffffffffffffffffffffffffffff1916817bffffffffffffffffffffffffffffffffffffffffffffffffffffffff191614915050611ae4565b600190505b949350505050565b600080823b905060008111915050919050565b828054611b0b906127e9565b90600052602060002090601f016020900481019282611b2d5760008555611b74565b82601f10611b4657805160ff1916838001178555611b74565b82800160010185558215611b74579182015b82811115611b73578251825591602001919060010190611b58565b5b509050611b819190611b85565b5090565b5b80821115611b9e576000816000905550600101611b86565b5090565b6000611bb5611bb0846125c6565b6125a1565b905082815260208101848484011115611bcd57600080fd5b611bd88482856127a7565b509392505050565b6000611bf3611bee846125f7565b6125a1565b905082815260208101848484011115611c0b57600080fd5b611c168482856127a7565b509392505050565b600081359050611c2d81612e14565b92915050565b600081359050611c4281612e2b565b92915050565b600081519050611c5781612e42565b92915050565b600082601f830112611c6e57600080fd5b8135611c7e848260208601611ba2565b91505092915050565b600082601f830112611c9857600080fd5b8135611ca8848260208601611be0565b91505092915050565b600081359050611cc081612e59565b92915050565b600081359050611cd581612e70565b92915050565b600060208284031215611ced57600080fd5b6000611cfb84828501611c1e565b91505092915050565b60008060408385031215611d1757600080fd5b6000611d2585828601611c1e565b9250506020611d3685828601611c1e565b9150509250929050565b600080600060608486031215611d5557600080fd5b6000611d6386828701611c1e565b9350506020611d7486828701611c1e565b9250506040611d8586828701611cb1565b9150509250925092565b60008060008060808587031215611da557600080fd5b6000611db387828801611c1e565b9450506020611dc487828801611c1e565b9350506040611dd587828801611cb1565b925050606085013567ffffffffffffffff811115611df257600080fd5b611dfe87828801611c5d565b91505092959194509250565b60008060408385031215611e1d57600080fd5b6000611e2b85828601611c1e565b9250506020611e3c85828601611c33565b9150509250929050565b60008060408385031215611e5957600080fd5b6000611e6785828601611c1e565b9250506020611e7885828601611cb1565b9150509250929050565b60008060408385031215611e9557600080fd5b6000611ea385828601611c1e565b9250506020611eb485828601611cc6565b9150509250929050565b600060208284031215611ed057600080fd5b6000611ede84828501611c48565b91505092915050565b600060208284031215611ef957600080fd5b600082013567ffffffffffffffff811115611f1357600080fd5b611f1f84828501611c87565b91505092915050565b600060208284031215611f3a57600080fd5b6000611f4884828501611cb1565b91505092915050565b611f5a81612726565b82525050565b611f6981612738565b82525050565b6000611f7a82612628565b611f84818561263e565b9350611f948185602086016127b6565b611f9d81612982565b840191505092915050565b6000611fb382612633565b611fbd818561264f565b9350611fcd8185602086016127b6565b611fd681612982565b840191505092915050565b6000611fec82612633565b611ff68185612660565b93506120068185602086016127b6565b80840191505092915050565b600061201f60328361264f565b915061202a82612993565b604082019050919050565b600061204260268361264f565b915061204d826129e2565b604082019050919050565b6000612065601c8361264f565b915061207082612a31565b602082019050919050565b600061208860248361264f565b915061209382612a5a565b604082019050919050565b60006120ab60198361264f565b91506120b682612aa9565b602082019050919050565b60006120ce602c8361264f565b91506120d982612ad2565b604082019050919050565b60006120f160388361264f565b91506120fc82612b21565b604082019050919050565b6000612114602a8361264f565b915061211f82612b70565b604082019050919050565b600061213760298361264f565b915061214282612bbf565b604082019050919050565b600061215a60208361264f565b915061216582612c0e565b602082019050919050565b600061217d602c8361264f565b915061218882612c37565b604082019050919050565b60006121a060208361264f565b91506121ab82612c86565b602082019050919050565b60006121c3601b8361264f565b91506121ce82612caf565b602082019050919050565b60006121e660298361264f565b91506121f182612cd8565b604082019050919050565b6000612209602f8361264f565b915061221482612d27565b604082019050919050565b600061222c60218361264f565b915061223782612d76565b604082019050919050565b600061224f60318361264f565b915061225a82612dc5565b604082019050919050565b61226e81612790565b82525050565b61227d8161279a565b82525050565b600061228f8285611fe1565b915061229b8284611fe1565b91508190509392505050565b60006020820190506122bc6000830184611f51565b92915050565b60006080820190506122d76000830187611f51565b6122e46020830186611f51565b6122f16040830185612265565b81810360608301526123038184611f6f565b905095945050505050565b60006020820190506123236000830184611f60565b92915050565b600060208201905081810360008301526123438184611fa8565b905092915050565b6000602082019050818103600083015261236481612012565b9050919050565b6000602082019050818103600083015261238481612035565b9050919050565b600060208201905081810360008301526123a481612058565b9050919050565b600060208201905081810360008301526123c48161207b565b9050919050565b600060208201905081810360008301526123e48161209e565b9050919050565b60006020820190508181036000830152612404816120c1565b9050919050565b60006020820190508181036000830152612424816120e4565b9050919050565b6000602082019050818103600083015261244481612107565b9050919050565b600060208201905081810360008301526124648161212a565b9050919050565b600060208201905081810360008301526124848161214d565b9050919050565b600060208201905081810360008301526124a481612170565b9050919050565b600060208201905081810360008301526124c481612193565b9050919050565b600060208201905081810360008301526124e4816121b6565b9050919050565b60006020820190508181036000830152612504816121d9565b9050919050565b60006020820190508181036000830152612524816121fc565b9050919050565b600060208201905081810360008301526125448161221f565b9050919050565b6000602082019050818103600083015261256481612242565b9050919050565b60006020820190506125806000830184612265565b92915050565b600060208201905061259b6000830184612274565b92915050565b60006125ab6125bc565b90506125b7828261281b565b919050565b6000604051905090565b600067ffffffffffffffff8211156125e1576125e0612953565b5b6125ea82612982565b9050602081019050919050565b600067ffffffffffffffff82111561261257612611612953565b5b61261b82612982565b9050602081019050919050565b600081519050919050565b600081519050919050565b600082825260208201905092915050565b600082825260208201905092915050565b600081905092915050565b600061267682612790565b915061268183612790565b9250827fffffffffffffffffffffffffffffffffffffffffffffffffffffffffffffffff038211156126b6576126b56128c6565b5b828201905092915050565b60006126cc82612790565b91506126d783612790565b9250826126e7576126e66128f5565b5b828204905092915050565b60006126fd82612790565b915061270883612790565b92508282101561271b5761271a6128c6565b5b828203905092915050565b600061273182612770565b9050919050565b60008115159050919050565b60007fffffffff0000000000000000000000000000000000000000000000000000000082169050919050565b600073ffffffffffffffffffffffffffffffffffffffff82169050919050565b6000819050919050565b600060ff82169050919050565b82818337600083830152505050565b60005b838110156127d45780820151818401526020810190506127b9565b838111156127e3576000848401525b50505050565b6000600282049050600182168061280157607f821691505b6020821081141561281557612814612924565b5b50919050565b61282482612982565b810181811067ffffffffffffffff8211171561284357612842612953565b5b80604052505050565b600061285782612790565b91507fffffffffffffffffffffffffffffffffffffffffffffffffffffffffffffffff82141561288a576128896128c6565b5b600182019050919050565b60006128a082612790565b91506128ab83612790565b9250826128bb576128ba6128f5565b5b828206905092915050565b7f4e487b7100000000000000000000000000000000000000000000000000000000600052601160045260246000fd5b7f4e487b7100000000000000000000000000000000000000000000000000000000600052601260045260246000fd5b7f4e487b7100000000000000000000000000000000000000000000000000000000600052602260045260246000fd5b7f4e487b7100000000000000000000000000000000000000000000000000000000600052604160045260246000fd5b6000601f19601f8301169050919050565b7f4552433732313a207472616e7366657220746f206e6f6e20455243373231526560008201527f63656976657220696d706c656d656e7465720000000000000000000000000000602082015250565b7f4f776e61626c653a206e6577206f776e657220697320746865207a65726f206160008201527f6464726573730000000000000000000000000000000000000000000000000000602082015250565b7f4552433732313a20746f6b656e20616c7265616479206d696e74656400000000600082015250565b7f4552433732313a207472616e7366657220746f20746865207a65726f2061646460008201527f7265737300000000000000000000000000000000000000000000000000000000602082015250565b7f4552433732313a20617070726f766520746f2063616c6c657200000000000000600082015250565b7f4552433732313a206f70657261746f7220717565727920666f72206e6f6e657860008201527f697374656e7420746f6b656e0000000000000000000000000000000000000000602082015250565b7f4552433732313a20617070726f76652063616c6c6572206973206e6f74206f7760008201527f6e6572206e6f7220617070726f76656420666f7220616c6c0000000000000000602082015250565b7f4552433732313a2062616c616e636520717565727920666f7220746865207a6560008201527f726f206164647265737300000000000000000000000000000000000000000000602082015250565b7f4552433732313a206f776e657220717565727920666f72206e6f6e657869737460008201527f656e7420746f6b656e0000000000000000000000000000000000000000000000602082015250565b7f4552433732313a206d696e7420746f20746865207a65726f2061646472657373600082015250565b7f4552433732313a20617070726f76656420717565727920666f72206e6f6e657860008201527f697374656e7420746f6b656e0000000000000000000000000000000000000000602082015250565b7f4f776e61626c653a2063616c6c6572206973206e6f7420746865206f776e6572600082015250565b7f4e756c6c73506574546f6b656e2f4e6f206f70657220726f6c652e0000000000600082015250565b7f4552433732313a207472616e73666572206f6620746f6b656e2074686174206960008201527f73206e6f74206f776e0000000000000000000000000000000000000000000000602082015250565b7f4552433732314d657461646174613a2055524920717565727920666f72206e6f60008201527f6e6578697374656e7420746f6b656e0000000000000000000000000000000000602082015250565b7f4552433732313a20617070726f76616c20746f2063757272656e74206f776e6560008201527f7200000000000000000000000000000000000000000000000000000000000000602082015250565b7f4552433732313a207472616e736665722063616c6c6572206973206e6f74206f60008201527f776e6572206e6f7220617070726f766564000000000000000000000000000000602082015250565b612e1d81612726565b8114612e2857600080fd5b50565b612e3481612738565b8114612e3f57600080fd5b50565b612e4b81612744565b8114612e5657600080fd5b50565b612e6281612790565b8114612e6d57600080fd5b50565b612e798161279a565b8114612e8457600080fd5b5056fea26469706673582212201e8ca1113f9148b787e339c19c3c31d79805488ef11e24f55222c7cb23da1bb864736f6c63430008040033",
  "linkReferences": {},
  "deployedLinkReferences": {}
}