{
  "_format": "hh-sol-artifact-1",
  "contractName": "NullsEggManager",
  "sourceName": "contracts/v1/games/NullsEggManager.sol",
  "abi": [
    {
      "anonymous": false,
      "inputs": [
        {
          "indexed": false,
          "internalType": "uint256",
          "name": "itemId",
          "type": "uint256"
        },
        {
          "indexed": false,
          "internalType": "bytes32",
          "name": "hv",
          "type": "bytes32"
        },
        {
          "indexed": false,
          "internalType": "uint256",
          "name": "nonce",
          "type": "uint256"
        },
        {
          "indexed": false,
          "internalType": "uint256",
          "name": "deadline",
          "type": "uint256"
        }
      ],
      "name": "EggNewNonce",
      "type": "event"
    },
    {
      "anonymous": false,
      "inputs": [
        {
          "indexed": false,
          "internalType": "uint256",
          "name": "gameId",
          "type": "uint256"
        },
        {
          "indexed": false,
          "internalType": "uint256",
          "name": "scene",
          "type": "uint256"
        },
        {
          "indexed": false,
          "internalType": "uint256",
          "name": "item",
          "type": "uint256"
        },
        {
          "indexed": false,
          "internalType": "address",
          "name": "player",
          "type": "address"
        },
        {
          "indexed": false,
          "internalType": "bytes",
          "name": "rv",
          "type": "bytes"
        }
      ],
      "name": "GameWrite",
      "type": "event"
    },
    {
      "anonymous": false,
      "inputs": [
        {
          "indexed": false,
          "internalType": "uint256",
          "name": "petid",
          "type": "uint256"
        },
        {
          "indexed": false,
          "internalType": "uint256",
          "name": "batchIndex",
          "type": "uint256"
        },
        {
          "indexed": false,
          "internalType": "uint256",
          "name": "item",
          "type": "uint256"
        },
        {
          "indexed": false,
          "internalType": "address",
          "name": "player",
          "type": "address"
        },
        {
          "indexed": false,
          "internalType": "uint256",
          "name": "v",
          "type": "uint256"
        },
        {
          "indexed": false,
          "internalType": "bytes32",
          "name": "rv",
          "type": "bytes32"
        }
      ],
      "name": "NewPet",
      "type": "event"
    },
    {
      "anonymous": false,
      "inputs": [
        {
          "indexed": true,
          "internalType": "address",
          "name": "previousOwner",
          "type": "address"
        },
        {
          "indexed": true,
          "internalType": "address",
          "name": "newOwner",
          "type": "address"
        }
      ],
      "name": "OwnershipTransferred",
      "type": "event"
    },
    {
      "inputs": [
        {
          "internalType": "uint256",
          "name": "total",
          "type": "uint256"
        },
        {
          "internalType": "address",
          "name": "token",
          "type": "address"
        }
      ],
      "name": "buy",
      "outputs": [],
      "stateMutability": "nonpayable",
      "type": "function"
    },
    {
      "inputs": [],
      "name": "getSceneId",
      "outputs": [
        {
          "internalType": "uint256",
          "name": "sceneId",
          "type": "uint256"
        }
      ],
      "stateMutability": "view",
      "type": "function"
    },
    {
      "inputs": [
        {
          "internalType": "uint256",
          "name": "item",
          "type": "uint256"
        },
        {
          "internalType": "bytes32",
          "name": "hv",
          "type": "bytes32"
        },
        {
          "internalType": "bytes32",
          "name": "rv",
          "type": "bytes32"
        }
      ],
      "name": "notify",
      "outputs": [
        {
          "internalType": "bool",
          "name": "",
          "type": "bool"
        }
      ],
      "stateMutability": "nonpayable",
      "type": "function"
    },
    {
      "inputs": [
        {
          "internalType": "uint256",
          "name": "total",
          "type": "uint256"
        },
        {
          "internalType": "uint256",
          "name": "itemId",
          "type": "uint256"
        },
        {
          "internalType": "uint256",
          "name": "deadline",
          "type": "uint256"
        }
      ],
      "name": "openMultiple",
      "outputs": [],
      "stateMutability": "nonpayable",
      "type": "function"
    },
    {
      "inputs": [],
      "name": "owner",
      "outputs": [
        {
          "internalType": "address",
          "name": "",
          "type": "address"
        }
      ],
      "stateMutability": "view",
      "type": "function"
    },
    {
      "inputs": [],
      "name": "renounceOwnership",
      "outputs": [],
      "stateMutability": "nonpayable",
      "type": "function"
    },
    {
      "inputs": [
        {
          "internalType": "address",
          "name": "afterAddr",
          "type": "address"
        }
      ],
      "name": "setAfterProccess",
      "outputs": [],
      "stateMutability": "nonpayable",
      "type": "function"
    },
    {
      "inputs": [
        {
          "internalType": "address",
          "name": "token",
          "type": "address"
        },
        {
          "internalType": "uint256",
          "name": "amount",
          "type": "uint256"
        }
      ],
      "name": "setBuyToken",
      "outputs": [],
      "stateMutability": "nonpayable",
      "type": "function"
    },
    {
      "inputs": [
        {
          "internalType": "address",
          "name": "eggToken",
          "type": "address"
        },
        {
          "internalType": "address",
          "name": "petToken",
          "type": "address"
        }
      ],
      "name": "setPetToken",
      "outputs": [],
      "stateMutability": "nonpayable",
      "type": "function"
    },
    {
      "inputs": [
        {
          "internalType": "address",
          "name": "proxy",
          "type": "address"
        },
        {
          "internalType": "string",
          "name": "name",
          "type": "string"
        }
      ],
      "name": "setProxy",
      "outputs": [],
      "stateMutability": "nonpayable",
      "type": "function"
    },
    {
      "inputs": [
        {
          "internalType": "address",
          "name": "token",
          "type": "address"
        },
        {
          "internalType": "address",
          "name": "to",
          "type": "address"
        },
        {
          "internalType": "uint256",
          "name": "amount",
          "type": "uint256"
        }
      ],
      "name": "superTransfer",
      "outputs": [],
      "stateMutability": "nonpayable",
      "type": "function"
    },
    {
      "inputs": [],
      "name": "test",
      "outputs": [
        {
          "internalType": "bool",
          "name": "",
          "type": "bool"
        }
      ],
      "stateMutability": "view",
      "type": "function"
    },
    {
      "inputs": [
        {
          "internalType": "address",
          "name": "newOwner",
          "type": "address"
        }
      ],
      "name": "transferOwnership",
      "outputs": [],
      "stateMutability": "nonpayable",
      "type": "function"
    }
  ],
  "bytecode": "0x60806040526001600960146101000a81548160ff02191690831515021790555034801561002b57600080fd5b5061004861003d61004d60201b60201c565b61005560201b60201c565b610119565b600033905090565b60008060009054906101000a900473ffffffffffffffffffffffffffffffffffffffff169050816000806101000a81548173ffffffffffffffffffffffffffffffffffffffff021916908373ffffffffffffffffffffffffffffffffffffffff1602179055508173ffffffffffffffffffffffffffffffffffffffff168173ffffffffffffffffffffffffffffffffffffffff167f8be0079c531659141344cd1fd0a4f28419497f9722a3daafe3b4186f6b6457e060405160405180910390a35050565b61233080620001296000396000f3fe608060405234801561001057600080fd5b50600436106100cf5760003560e01c80638da5cb5b1161008c578063aa4af47011610066578063aa4af470146101d6578063ea0dd94e146101f2578063f2fde38b1461020e578063f8a8fd6d1461022a576100cf565b80638da5cb5b14610180578063905bd5e41461019e578063a65ef611146101ba576100cf565b8063180540d8146100d45780636879ce0d146100f0578063715018a61461010e57806373278c281461011857806377e10027146101345780637deb602514610164575b600080fd5b6100ee60048036038101906100e9919061159b565b610248565b005b6100f8610308565b6040516101059190611cb6565b60405180910390f35b610116610312565b005b610132600480360381019061012d919061164f565b61039a565b005b61014e6004803603810190610149919061176d565b610510565b60405161015b9190611b15565b60405180910390f35b61017e60048036038101906101799190611731565b6107c6565b005b610188610b7c565b60405161019591906119fc565b60405180910390f35b6101b860048036038101906101b39190611600565b610ba5565b005b6101d460048036038101906101cf91906115c4565b610cb4565b005b6101f060048036038101906101eb91906116a3565b610db6565b005b61020c600480360381019061020791906117bc565b610ec0565b005b6102286004803603810190610223919061159b565b611137565b005b61023261122f565b60405161023f9190611b15565b60405180910390f35b610250611246565b73ffffffffffffffffffffffffffffffffffffffff1661026e610b7c565b73ffffffffffffffffffffffffffffffffffffffff16146102c4576040517f08c379a00000000000000000000000000000000000000000000000000000000081526004016102bb90611c36565b60405180910390fd5b80600460006101000a81548173ffffffffffffffffffffffffffffffffffffffff021916908373ffffffffffffffffffffffffffffffffffffffff16021790555050565b6000600554905090565b61031a611246565b73ffffffffffffffffffffffffffffffffffffffff16610338610b7c565b73ffffffffffffffffffffffffffffffffffffffff161461038e576040517f08c379a000000000000000000000000000000000000000000000000000000000815260040161038590611c36565b60405180910390fd5b610398600061124e565b565b6103a2611246565b73ffffffffffffffffffffffffffffffffffffffff166103c0610b7c565b73ffffffffffffffffffffffffffffffffffffffff1614610416576040517f08c379a000000000000000000000000000000000000000000000000000000000815260040161040d90611c36565b60405180910390fd5b81600360006101000a81548173ffffffffffffffffffffffffffffffffffffffff021916908373ffffffffffffffffffffffffffffffffffffffff160217905550600360009054906101000a900473ffffffffffffffffffffffffffffffffffffffff1673ffffffffffffffffffffffffffffffffffffffff16630e349be430836040518363ffffffff1660e01b81526004016104b4929190611a4e565b602060405180830381600087803b1580156104ce57600080fd5b505af11580156104e2573d6000803e3d6000fd5b505050506040513d601f19601f820116820180604052508101906105069190611708565b6005819055505050565b6000600360009054906101000a900473ffffffffffffffffffffffffffffffffffffffff1673ffffffffffffffffffffffffffffffffffffffff163373ffffffffffffffffffffffffffffffffffffffff16146105a2576040517f08c379a000000000000000000000000000000000000000000000000000000000815260040161059990611bd6565b60405180910390fd5b6000600860008581526020019081526020016000206040518060800160405290816000820154815260200160018201548152602001600282015481526020016003820160009054906101000a900473ffffffffffffffffffffffffffffffffffffffff1673ffffffffffffffffffffffffffffffffffffffff1673ffffffffffffffffffffffffffffffffffffffff16815250509050600081600001511161067f576040517f08c379a000000000000000000000000000000000000000000000000000000000815260040161067690611c56565b60405180910390fd5b806020015185146106c5576040517f08c379a00000000000000000000000000000000000000000000000000000000081526004016106bc90611c16565b60405180910390fd5b600160009054906101000a900473ffffffffffffffffffffffffffffffffffffffff1673ffffffffffffffffffffffffffffffffffffffff166323b872dd82606001513084600001516040518463ffffffff1660e01b815260040161072c93929190611a17565b602060405180830381600087803b15801561074657600080fd5b505af115801561075a573d6000803e3d6000fd5b505050506040513d601f19601f8201168201806040525081019061077e91906116df565b5060005b81600001518160ff1610156107b9576107a5818360200151846060015187611312565b5080806107b190611f87565b915050610782565b5060019150509392505050565b60003390506000831161080e576040517f08c379a000000000000000000000000000000000000000000000000000000000815260040161080590611bf6565b60405180910390fd5b6000600660008473ffffffffffffffffffffffffffffffffffffffff1673ffffffffffffffffffffffffffffffffffffffff168152602001908152602001600020604051806040016040529081600082015481526020016001820160009054906101000a900460ff16151515158152505090506001151581602001511515146108cc576040517f08c379a00000000000000000000000000000000000000000000000000000000081526004016108c390611c96565b60405180910390fd5b60008160000151856108de9190611e49565b90508373ffffffffffffffffffffffffffffffffffffffff166323b872dd8430846040518463ffffffff1660e01b815260040161091d93929190611a17565b602060405180830381600087803b15801561093757600080fd5b505af115801561094b573d6000803e3d6000fd5b505050506040513d601f19601f8201168201806040525081019061096f91906116df565b50600160009054906101000a900473ffffffffffffffffffffffffffffffffffffffff1673ffffffffffffffffffffffffffffffffffffffff166340c10f1984876040518363ffffffff1660e01b81526004016109cd929190611a7e565b600060405180830381600087803b1580156109e757600080fd5b505af11580156109fb573d6000803e3d6000fd5b50505050600073ffffffffffffffffffffffffffffffffffffffff16600460009054906101000a900473ffffffffffffffffffffffffffffffffffffffff1673ffffffffffffffffffffffffffffffffffffffff1614610b75578373ffffffffffffffffffffffffffffffffffffffff1663095ea7b330836040518363ffffffff1660e01b8152600401610a90929190611a7e565b602060405180830381600087803b158015610aaa57600080fd5b505af1158015610abe573d6000803e3d6000fd5b505050506040513d601f19601f82011682018060405250810190610ae291906116df565b50600460009054906101000a900473ffffffffffffffffffffffffffffffffffffffff1673ffffffffffffffffffffffffffffffffffffffff1663478621a58686846040518463ffffffff1660e01b8152600401610b4293929190611cd1565b600060405180830381600087803b158015610b5c57600080fd5b505af1158015610b70573d6000803e3d6000fd5b505050505b5050505050565b60008060009054906101000a900473ffffffffffffffffffffffffffffffffffffffff16905090565b610bad611246565b73ffffffffffffffffffffffffffffffffffffffff16610bcb610b7c565b73ffffffffffffffffffffffffffffffffffffffff1614610c21576040517f08c379a0000000000000000000000000000000000000000000000000000000008152600401610c1890611c36565b60405180910390fd5b8273ffffffffffffffffffffffffffffffffffffffff1663a9059cbb83836040518363ffffffff1660e01b8152600401610c5c929190611a7e565b602060405180830381600087803b158015610c7657600080fd5b505af1158015610c8a573d6000803e3d6000fd5b505050506040513d601f19601f82011682018060405250810190610cae91906116df565b50505050565b610cbc611246565b73ffffffffffffffffffffffffffffffffffffffff16610cda610b7c565b73ffffffffffffffffffffffffffffffffffffffff1614610d30576040517f08c379a0000000000000000000000000000000000000000000000000000000008152600401610d2790611c36565b60405180910390fd5b81600160006101000a81548173ffffffffffffffffffffffffffffffffffffffff021916908373ffffffffffffffffffffffffffffffffffffffff16021790555080600260006101000a81548173ffffffffffffffffffffffffffffffffffffffff021916908373ffffffffffffffffffffffffffffffffffffffff1602179055505050565b610dbe611246565b73ffffffffffffffffffffffffffffffffffffffff16610ddc610b7c565b73ffffffffffffffffffffffffffffffffffffffff1614610e32576040517f08c379a0000000000000000000000000000000000000000000000000000000008152600401610e2990611c36565b60405180910390fd5b6000604051806040016040528083815260200160011515815250905080600660008573ffffffffffffffffffffffffffffffffffffffff1673ffffffffffffffffffffffffffffffffffffffff1681526020019081526020016000206000820151816000015560208201518160010160006101000a81548160ff021916908315150217905550905050505050565b600083118015610ed1575060148311155b610f10576040517f08c379a0000000000000000000000000000000000000000000000000000000008152600401610f0790611bb6565b60405180910390fd5b80421115610f53576040517f08c379a0000000000000000000000000000000000000000000000000000000008152600401610f4a90611c76565b60405180910390fd5b6000838383610f6133611448565b46604051602001610f76959493929190611b50565b6040516020818303038152906040528051906020012090506000600360009054906101000a900473ffffffffffffffffffffffffffffffffffffffff1673ffffffffffffffffffffffffffffffffffffffff16635d23b9c485846040518363ffffffff1660e01b8152600401610fed929190611d08565b602060405180830381600087803b15801561100757600080fd5b505af115801561101b573d6000803e3d6000fd5b505050506040513d601f19601f8201168201806040525081019061103f9190611708565b905060405180608001604052808681526020018581526020018281526020013373ffffffffffffffffffffffffffffffffffffffff168152506008600084815260200190815260200160002060008201518160000155602082015181600101556040820151816002015560608201518160030160006101000a81548173ffffffffffffffffffffffffffffffffffffffff021916908373ffffffffffffffffffffffffffffffffffffffff1602179055509050507f29719784966c35a099ce84b8179128f33d89aa4399e9e2a60d0bfe7c399f7891848383866040516111289493929190611d31565b60405180910390a15050505050565b61113f611246565b73ffffffffffffffffffffffffffffffffffffffff1661115d610b7c565b73ffffffffffffffffffffffffffffffffffffffff16146111b3576040517f08c379a00000000000000000000000000000000000000000000000000000000081526004016111aa90611c36565b60405180910390fd5b600073ffffffffffffffffffffffffffffffffffffffff168173ffffffffffffffffffffffffffffffffffffffff161415611223576040517f08c379a000000000000000000000000000000000000000000000000000000000815260040161121a90611b30565b60405180910390fd5b61122c8161124e565b50565b6000600960149054906101000a900460ff16905090565b600033905090565b60008060009054906101000a900473ffffffffffffffffffffffffffffffffffffffff169050816000806101000a81548173ffffffffffffffffffffffffffffffffffffffff021916908373ffffffffffffffffffffffffffffffffffffffff1602179055508173ffffffffffffffffffffffffffffffffffffffff168173ffffffffffffffffffffffffffffffffffffffff167f8be0079c531659141344cd1fd0a4f28419497f9722a3daafe3b4186f6b6457e060405160405180910390a35050565b6000808385878560405160200161132c9493929190611aa7565b60405160208183030381529060405280519060200120905060008160f81c9050600260009054906101000a900473ffffffffffffffffffffffffffffffffffffffff1673ffffffffffffffffffffffffffffffffffffffff1663691562a086836040518363ffffffff1660e01b81526004016113a9929190611aec565b602060405180830381600087803b1580156113c357600080fd5b505af11580156113d7573d6000803e3d6000fd5b505050506040513d601f19601f820116820180604052508101906113fb9190611708565b92507f4fd1ef199efddcd3edeada47bc9cc1bf1a6783d7e317a48b052691f7cbe632d283888888858960405161143696959493929190611d76565b60405180910390a15050949350505050565b600080600760008473ffffffffffffffffffffffffffffffffffffffff1673ffffffffffffffffffffffffffffffffffffffff1681526020019081526020016000209050611495816114a6565b91506114a0816114b4565b50919050565b600081600001549050919050565b6001816000016000828254019250508190555050565b60006114dd6114d884611dfc565b611dd7565b9050828152602081018484840111156114f557600080fd5b611500848285611f14565b509392505050565b6000813590506115178161229e565b92915050565b60008151905061152c816122b5565b92915050565b600081359050611541816122cc565b92915050565b600082601f83011261155857600080fd5b81356115688482602086016114ca565b91505092915050565b600081359050611580816122e3565b92915050565b600081519050611595816122e3565b92915050565b6000602082840312156115ad57600080fd5b60006115bb84828501611508565b91505092915050565b600080604083850312156115d757600080fd5b60006115e585828601611508565b92505060206115f685828601611508565b9150509250929050565b60008060006060848603121561161557600080fd5b600061162386828701611508565b935050602061163486828701611508565b925050604061164586828701611571565b9150509250925092565b6000806040838503121561166257600080fd5b600061167085828601611508565b925050602083013567ffffffffffffffff81111561168d57600080fd5b61169985828601611547565b9150509250929050565b600080604083850312156116b657600080fd5b60006116c485828601611508565b92505060206116d585828601611571565b9150509250929050565b6000602082840312156116f157600080fd5b60006116ff8482850161151d565b91505092915050565b60006020828403121561171a57600080fd5b600061172884828501611586565b91505092915050565b6000806040838503121561174457600080fd5b600061175285828601611571565b925050602061176385828601611508565b9150509250929050565b60008060006060848603121561178257600080fd5b600061179086828701611571565b93505060206117a186828701611532565b92505060406117b286828701611532565b9150509250925092565b6000806000606084860312156117d157600080fd5b60006117df86828701611571565b93505060206117f086828701611571565b925050604061180186828701611571565b9150509250925092565b61181481611ea3565b82525050565b61182381611eb5565b82525050565b61183281611ec1565b82525050565b600061184382611e2d565b61184d8185611e38565b935061185d818560208601611f23565b6118668161200f565b840191505092915050565b600061187e602683611e38565b915061188982612020565b604082019050919050565b60006118a1600983611e38565b91506118ac8261206f565b602082019050919050565b60006118c4602383611e38565b91506118cf82612098565b604082019050919050565b60006118e7602183611e38565b91506118f2826120e7565b604082019050919050565b600061190a601e83611e38565b915061191582612136565b602082019050919050565b600061192d602883611e38565b91506119388261215f565b604082019050919050565b6000611950602083611e38565b915061195b826121ae565b602082019050919050565b6000611973602f83611e38565b915061197e826121d7565b604082019050919050565b6000611996602183611e38565b91506119a182612226565b604082019050919050565b60006119b9602083611e38565b91506119c482612275565b602082019050919050565b6119d881611eeb565b82525050565b6119e781611f02565b82525050565b6119f681611ef5565b82525050565b6000602082019050611a11600083018461180b565b92915050565b6000606082019050611a2c600083018661180b565b611a39602083018561180b565b611a4660408301846119cf565b949350505050565b6000604082019050611a63600083018561180b565b8181036020830152611a758184611838565b90509392505050565b6000604082019050611a93600083018561180b565b611aa060208301846119cf565b9392505050565b6000608082019050611abc600083018761180b565b611ac960208301866119cf565b611ad660408301856119ed565b611ae36060830184611829565b95945050505050565b6000604082019050611b01600083018561180b565b611b0e60208301846119ed565b9392505050565b6000602082019050611b2a600083018461181a565b92915050565b60006020820190508181036000830152611b4981611871565b9050919050565b600060c0820190508181036000830152611b6981611894565b9050611b7860208301886119cf565b611b8560408301876119cf565b611b9260608301866119cf565b611b9f60808301856119cf565b611bac60a08301846119cf565b9695505050505050565b60006020820190508181036000830152611bcf816118b7565b9050919050565b60006020820190508181036000830152611bef816118da565b9050919050565b60006020820190508181036000830152611c0f816118fd565b9050919050565b60006020820190508181036000830152611c2f81611920565b9050919050565b60006020820190508181036000830152611c4f81611943565b9050919050565b60006020820190508181036000830152611c6f81611966565b9050919050565b60006020820190508181036000830152611c8f81611989565b9050919050565b60006020820190508181036000830152611caf816119ac565b9050919050565b6000602082019050611ccb60008301846119cf565b92915050565b6000606082019050611ce660008301866119cf565b611cf3602083018561180b565b611d0060408301846119cf565b949350505050565b6000604082019050611d1d60008301856119cf565b611d2a6020830184611829565b9392505050565b6000608082019050611d4660008301876119cf565b611d536020830186611829565b611d6060408301856119cf565b611d6d60608301846119cf565b95945050505050565b600060c082019050611d8b60008301896119cf565b611d9860208301886119de565b611da560408301876119cf565b611db2606083018661180b565b611dbf60808301856119de565b611dcc60a0830184611829565b979650505050505050565b6000611de1611df2565b9050611ded8282611f56565b919050565b6000604051905090565b600067ffffffffffffffff821115611e1757611e16611fe0565b5b611e208261200f565b9050602081019050919050565b600081519050919050565b600082825260208201905092915050565b6000611e5482611eeb565b9150611e5f83611eeb565b9250817fffffffffffffffffffffffffffffffffffffffffffffffffffffffffffffffff0483118215151615611e9857611e97611fb1565b5b828202905092915050565b6000611eae82611ecb565b9050919050565b60008115159050919050565b6000819050919050565b600073ffffffffffffffffffffffffffffffffffffffff82169050919050565b6000819050919050565b600060ff82169050919050565b6000611f0d82611ef5565b9050919050565b82818337600083830152505050565b60005b83811015611f41578082015181840152602081019050611f26565b83811115611f50576000848401525b50505050565b611f5f8261200f565b810181811067ffffffffffffffff82111715611f7e57611f7d611fe0565b5b80604052505050565b6000611f9282611ef5565b915060ff821415611fa657611fa5611fb1565b5b600182019050919050565b7f4e487b7100000000000000000000000000000000000000000000000000000000600052601160045260246000fd5b7f4e487b7100000000000000000000000000000000000000000000000000000000600052604160045260246000fd5b6000601f19601f8301169050919050565b7f4f776e61626c653a206e6577206f776e657220697320746865207a65726f206160008201527f6464726573730000000000000000000000000000000000000000000000000000602082015250565b7f6e756c6c732e6567670000000000000000000000000000000000000000000000600082015250565b7f4e756c6c734567674d616e616765722f55736520312d3230206174206120746960008201527f6d652e0000000000000000000000000000000000000000000000000000000000602082015250565b7f4e756c6c734f70656e45676756312f4973206e6f742066726f6d2070726f787960008201527f2e00000000000000000000000000000000000000000000000000000000000000602082015250565b7f4e756c6c734567674d616e616765722f546f74616c206973207a65726f2e0000600082015250565b7f4e756c6c734567674d616e616765722f4974656d20766572696669636174696f60008201527f6e206661696c6564000000000000000000000000000000000000000000000000602082015250565b7f4f776e61626c653a2063616c6c6572206973206e6f7420746865206f776e6572600082015250565b7f4e756c6c734567674d616e616765722f5468652064617461206f627461696e6560008201527f64206279204856206973206e756c6c0000000000000000000000000000000000602082015250565b7f4e756c6c734567674d616e616765723a206578706972656420646561646c696e60008201527f6500000000000000000000000000000000000000000000000000000000000000602082015250565b7f4e756c6c734567674d616e616765722f4e6f7420616c6c6f7720746f6b656e2e600082015250565b6122a781611ea3565b81146122b257600080fd5b50565b6122be81611eb5565b81146122c957600080fd5b50565b6122d581611ec1565b81146122e057600080fd5b50565b6122ec81611eeb565b81146122f757600080fd5b5056fea264697066735822122091790797b20b512797f40b4a8227d97aa327b77b11c29c6d20b837fab4c0a4fd64736f6c63430008040033",
  "linkReferences": {},
  "deployedLinkReferences": {}
}