{
  "_format": "hh-sol-artifact-1",
  "contractName": "NullsWorldMarket",
  "sourceName": "contracts/v1/NullsWorldMarket.sol",
  "abi": [
    {
      "anonymous": false,
      "inputs": [
        {
          "indexed": true,
          "internalType": "address",
          "name": "previousOwner",
          "type": "address"
        },
        {
          "indexed": true,
          "internalType": "address",
          "name": "newOwner",
          "type": "address"
        }
      ],
      "name": "OwnershipTransferred",
      "type": "event"
    },
    {
      "anonymous": false,
      "inputs": [
        {
          "indexed": false,
          "internalType": "uint256",
          "name": "petId",
          "type": "uint256"
        },
        {
          "indexed": false,
          "internalType": "uint256",
          "name": "count",
          "type": "uint256"
        },
        {
          "indexed": false,
          "internalType": "address",
          "name": "tokenAddr",
          "type": "address"
        },
        {
          "indexed": false,
          "internalType": "uint256",
          "name": "price",
          "type": "uint256"
        },
        {
          "indexed": false,
          "internalType": "address",
          "name": "seller",
          "type": "address"
        },
        {
          "indexed": false,
          "internalType": "uint256",
          "name": "timestamp",
          "type": "uint256"
        }
      ],
      "name": "SellPet",
      "type": "event"
    },
    {
      "anonymous": false,
      "inputs": [
        {
          "indexed": false,
          "internalType": "uint256",
          "name": "petId",
          "type": "uint256"
        },
        {
          "indexed": false,
          "internalType": "uint256",
          "name": "count",
          "type": "uint256"
        },
        {
          "indexed": false,
          "internalType": "address",
          "name": "seller",
          "type": "address"
        },
        {
          "indexed": false,
          "internalType": "address",
          "name": "buyer",
          "type": "address"
        },
        {
          "indexed": false,
          "internalType": "uint256",
          "name": "timestamp",
          "type": "uint256"
        }
      ],
      "name": "SuccessSell",
      "type": "event"
    },
    {
      "anonymous": false,
      "inputs": [
        {
          "indexed": false,
          "internalType": "uint256",
          "name": "petId",
          "type": "uint256"
        },
        {
          "indexed": false,
          "internalType": "uint256",
          "name": "count",
          "type": "uint256"
        },
        {
          "indexed": false,
          "internalType": "address",
          "name": "seller",
          "type": "address"
        }
      ],
      "name": "UnSellPet",
      "type": "event"
    },
    {
      "inputs": [
        {
          "internalType": "uint256",
          "name": "",
          "type": "uint256"
        }
      ],
      "name": "PetSellInfos",
      "outputs": [
        {
          "internalType": "bool",
          "name": "isSell",
          "type": "bool"
        },
        {
          "internalType": "address",
          "name": "token",
          "type": "address"
        },
        {
          "internalType": "uint256",
          "name": "price",
          "type": "uint256"
        },
        {
          "internalType": "address",
          "name": "seller",
          "type": "address"
        },
        {
          "internalType": "uint256",
          "name": "count",
          "type": "uint256"
        }
      ],
      "stateMutability": "view",
      "type": "function"
    },
    {
      "inputs": [
        {
          "internalType": "address",
          "name": "",
          "type": "address"
        }
      ],
      "name": "SupportedToken",
      "outputs": [
        {
          "internalType": "bool",
          "name": "",
          "type": "bool"
        }
      ],
      "stateMutability": "view",
      "type": "function"
    },
    {
      "inputs": [
        {
          "internalType": "uint256",
          "name": "petId",
          "type": "uint256"
        }
      ],
      "name": "buyPet",
      "outputs": [],
      "stateMutability": "nonpayable",
      "type": "function"
    },
    {
      "inputs": [],
      "name": "owner",
      "outputs": [
        {
          "internalType": "address",
          "name": "",
          "type": "address"
        }
      ],
      "stateMutability": "view",
      "type": "function"
    },
    {
      "inputs": [],
      "name": "renounceOwnership",
      "outputs": [],
      "stateMutability": "nonpayable",
      "type": "function"
    },
    {
      "inputs": [
        {
          "internalType": "uint256",
          "name": "petId",
          "type": "uint256"
        },
        {
          "internalType": "address",
          "name": "tokenAddr",
          "type": "address"
        },
        {
          "internalType": "uint256",
          "name": "price",
          "type": "uint256"
        }
      ],
      "name": "sellPet",
      "outputs": [],
      "stateMutability": "nonpayable",
      "type": "function"
    },
    {
      "inputs": [
        {
          "internalType": "address",
          "name": "petToken",
          "type": "address"
        }
      ],
      "name": "setPetToken",
      "outputs": [],
      "stateMutability": "nonpayable",
      "type": "function"
    },
    {
      "inputs": [
        {
          "internalType": "address",
          "name": "tokenAddr",
          "type": "address"
        }
      ],
      "name": "setSupportedToken",
      "outputs": [],
      "stateMutability": "nonpayable",
      "type": "function"
    },
    {
      "inputs": [
        {
          "internalType": "address",
          "name": "newOwner",
          "type": "address"
        }
      ],
      "name": "transferOwnership",
      "outputs": [],
      "stateMutability": "nonpayable",
      "type": "function"
    },
    {
      "inputs": [
        {
          "internalType": "uint256",
          "name": "petId",
          "type": "uint256"
        }
      ],
      "name": "unSellPet",
      "outputs": [],
      "stateMutability": "nonpayable",
      "type": "function"
    }
  ],
  "bytecode": "0x60806040526000600160006101000a81548173ffffffffffffffffffffffffffffffffffffffff021916908373ffffffffffffffffffffffffffffffffffffffff16021790555034801561005257600080fd5b5061006f61006461007460201b60201c565b61007c60201b60201c565b610140565b600033905090565b60008060009054906101000a900473ffffffffffffffffffffffffffffffffffffffff169050816000806101000a81548173ffffffffffffffffffffffffffffffffffffffff021916908373ffffffffffffffffffffffffffffffffffffffff1602179055508173ffffffffffffffffffffffffffffffffffffffff168173ffffffffffffffffffffffffffffffffffffffff167f8be0079c531659141344cd1fd0a4f28419497f9722a3daafe3b4186f6b6457e060405160405180910390a35050565b611bde8061014f6000396000f3fe608060405234801561001057600080fd5b506004361061009e5760003560e01c80638da5cb5b116100665780638da5cb5b146101355780639edded1114610153578063bc2f2dcf1461016f578063d52163ec1461018b578063f2fde38b146101bb5761009e565b80631e6b1277146100a35780632a23e720146100bf5780635cb40c27146100db57806367e3d72c146100f7578063715018a61461012b575b600080fd5b6100bd60048036038101906100b891906113ee565b6101d7565b005b6100d960048036038101906100d49190611417565b610551565b005b6100f560048036038101906100f09190611373565b610a4c565b005b610111600480360381019061010c91906113ee565b610b0c565b604051610122959493929190611618565b60405180910390f35b610133610b8f565b005b61013d610c17565b60405161014a91906115ab565b60405180910390f35b61016d600480360381019061016891906113ee565b610c40565b005b61018960048036038101906101849190611373565b611064565b005b6101a560048036038101906101a09190611373565b61113b565b6040516101b291906115fd565b60405180910390f35b6101d560048036038101906101d09190611373565b61115b565b005b3373ffffffffffffffffffffffffffffffffffffffff16600160009054906101000a900473ffffffffffffffffffffffffffffffffffffffff1673ffffffffffffffffffffffffffffffffffffffff16636352211e836040518263ffffffff1660e01b8152600401610249919061176b565b60206040518083038186803b15801561026157600080fd5b505afa158015610275573d6000803e3d6000fd5b505050506040513d601f19601f82011682018060405250810190610299919061139c565b73ffffffffffffffffffffffffffffffffffffffff16146102ef576040517f08c379a00000000000000000000000000000000000000000000000000000000081526004016102e69061170b565b60405180910390fd5b6000600360008381526020019081526020016000206040518060a00160405290816000820160009054906101000a900460ff161515151581526020016000820160019054906101000a900473ffffffffffffffffffffffffffffffffffffffff1673ffffffffffffffffffffffffffffffffffffffff1673ffffffffffffffffffffffffffffffffffffffff168152602001600182015481526020016002820160009054906101000a900473ffffffffffffffffffffffffffffffffffffffff1673ffffffffffffffffffffffffffffffffffffffff1673ffffffffffffffffffffffffffffffffffffffff16815260200160038201548152505090506001151581600001511515141561054d57600081600001901515908115158152505060018160800181815161042191906118d8565b91508181525050806003600084815260200190815260200160002060008201518160000160006101000a81548160ff02191690831515021790555060208201518160000160016101000a81548173ffffffffffffffffffffffffffffffffffffffff021916908373ffffffffffffffffffffffffffffffffffffffff1602179055506040820151816001015560608201518160020160006101000a81548173ffffffffffffffffffffffffffffffffffffffff021916908373ffffffffffffffffffffffffffffffffffffffff160217905550608082015181600301559050507f9d95c8d7e85df1b99652e8b5c74845d38cfac4cadd1786b23310a6556ee910e782600183608001516105349190611882565b3360405161054493929190611786565b60405180910390a15b5050565b3373ffffffffffffffffffffffffffffffffffffffff16600160009054906101000a900473ffffffffffffffffffffffffffffffffffffffff1673ffffffffffffffffffffffffffffffffffffffff16636352211e856040518263ffffffff1660e01b81526004016105c3919061176b565b60206040518083038186803b1580156105db57600080fd5b505afa1580156105ef573d6000803e3d6000fd5b505050506040513d601f19601f82011682018060405250810190610613919061139c565b73ffffffffffffffffffffffffffffffffffffffff1614610669576040517f08c379a00000000000000000000000000000000000000000000000000000000081526004016106609061170b565b60405180910390fd5b60011515600260008473ffffffffffffffffffffffffffffffffffffffff1673ffffffffffffffffffffffffffffffffffffffff16815260200190815260200160002060009054906101000a900460ff161515146106fc576040517f08c379a00000000000000000000000000000000000000000000000000000000081526004016106f39061174b565b60405180910390fd5b3073ffffffffffffffffffffffffffffffffffffffff16600160009054906101000a900473ffffffffffffffffffffffffffffffffffffffff1673ffffffffffffffffffffffffffffffffffffffff1663081812fc856040518263ffffffff1660e01b815260040161076e919061176b565b60206040518083038186803b15801561078657600080fd5b505afa15801561079a573d6000803e3d6000fd5b505050506040513d601f19601f820116820180604052508101906107be919061139c565b73ffffffffffffffffffffffffffffffffffffffff1614610814576040517f08c379a000000000000000000000000000000000000000000000000000000000815260040161080b906116ab565b60405180910390fd5b6000600360008581526020019081526020016000206040518060a00160405290816000820160009054906101000a900460ff161515151581526020016000820160019054906101000a900473ffffffffffffffffffffffffffffffffffffffff1673ffffffffffffffffffffffffffffffffffffffff1673ffffffffffffffffffffffffffffffffffffffff168152602001600182015481526020016002820160009054906101000a900473ffffffffffffffffffffffffffffffffffffffff1673ffffffffffffffffffffffffffffffffffffffff1673ffffffffffffffffffffffffffffffffffffffff168152602001600382015481525050905060001515816000015115151461095c576040517f08c379a00000000000000000000000000000000000000000000000000000000081526004016109539061168b565b60405180910390fd5b600181600001901515908115158152505082816020019073ffffffffffffffffffffffffffffffffffffffff16908173ffffffffffffffffffffffffffffffffffffffff16815250508181604001818152505033816060019073ffffffffffffffffffffffffffffffffffffffff16908173ffffffffffffffffffffffffffffffffffffffff16815250506001816080018181516109fa9190611882565b915081815250507f09aa251368465a9c803a782fe301da187afef32dceb15a706fbaf82305c9e38984826080015185853342604051610a3e96959493929190611810565b60405180910390a150505050565b610a54611253565b73ffffffffffffffffffffffffffffffffffffffff16610a72610c17565b73ffffffffffffffffffffffffffffffffffffffff1614610ac8576040517f08c379a0000000000000000000000000000000000000000000000000000000008152600401610abf906116eb565b60405180910390fd5b80600160006101000a81548173ffffffffffffffffffffffffffffffffffffffff021916908373ffffffffffffffffffffffffffffffffffffffff16021790555050565b60036020528060005260406000206000915090508060000160009054906101000a900460ff16908060000160019054906101000a900473ffffffffffffffffffffffffffffffffffffffff16908060010154908060020160009054906101000a900473ffffffffffffffffffffffffffffffffffffffff16908060030154905085565b610b97611253565b73ffffffffffffffffffffffffffffffffffffffff16610bb5610c17565b73ffffffffffffffffffffffffffffffffffffffff1614610c0b576040517f08c379a0000000000000000000000000000000000000000000000000000000008152600401610c02906116eb565b60405180910390fd5b610c15600061125b565b565b60008060009054906101000a900473ffffffffffffffffffffffffffffffffffffffff16905090565b6000600360008381526020019081526020016000206040518060a00160405290816000820160009054906101000a900460ff161515151581526020016000820160019054906101000a900473ffffffffffffffffffffffffffffffffffffffff1673ffffffffffffffffffffffffffffffffffffffff1673ffffffffffffffffffffffffffffffffffffffff168152602001600182015481526020016002820160009054906101000a900473ffffffffffffffffffffffffffffffffffffffff1673ffffffffffffffffffffffffffffffffffffffff1673ffffffffffffffffffffffffffffffffffffffff16815260200160038201548152505090508060000151610d81576040517f08c379a0000000000000000000000000000000000000000000000000000000008152600401610d789061172b565b60405180910390fd5b3073ffffffffffffffffffffffffffffffffffffffff16600160009054906101000a900473ffffffffffffffffffffffffffffffffffffffff1673ffffffffffffffffffffffffffffffffffffffff1663081812fc846040518263ffffffff1660e01b8152600401610df3919061176b565b60206040518083038186803b158015610e0b57600080fd5b505afa158015610e1f573d6000803e3d6000fd5b505050506040513d601f19601f82011682018060405250810190610e43919061139c565b73ffffffffffffffffffffffffffffffffffffffff1614610e99576040517f08c379a0000000000000000000000000000000000000000000000000000000008152600401610e90906116ab565b60405180910390fd5b806020015173ffffffffffffffffffffffffffffffffffffffff166323b872dd33836060015184604001516040518463ffffffff1660e01b8152600401610ee2939291906115c6565b602060405180830381600087803b158015610efc57600080fd5b505af1158015610f10573d6000803e3d6000fd5b505050506040513d601f19601f82011682018060405250810190610f3491906113c5565b610f73576040517f08c379a0000000000000000000000000000000000000000000000000000000008152600401610f6a906116cb565b60405180910390fd5b600160009054906101000a900473ffffffffffffffffffffffffffffffffffffffff1673ffffffffffffffffffffffffffffffffffffffff166323b872dd826060015133856040518463ffffffff1660e01b8152600401610fd6939291906115c6565b600060405180830381600087803b158015610ff057600080fd5b505af1158015611004573d6000803e3d6000fd5b5050505060008160000190151590811515815250507ff30e3277ba41e9871d79e6310ed01397441c5946fe22a3ad870df488e4ddf113828260800151836060015133426040516110589594939291906117bd565b60405180910390a15050565b61106c611253565b73ffffffffffffffffffffffffffffffffffffffff1661108a610c17565b73ffffffffffffffffffffffffffffffffffffffff16146110e0576040517f08c379a00000000000000000000000000000000000000000000000000000000081526004016110d7906116eb565b60405180910390fd5b6001600260008373ffffffffffffffffffffffffffffffffffffffff1673ffffffffffffffffffffffffffffffffffffffff16815260200190815260200160002060006101000a81548160ff02191690831515021790555050565b60026020528060005260406000206000915054906101000a900460ff1681565b611163611253565b73ffffffffffffffffffffffffffffffffffffffff16611181610c17565b73ffffffffffffffffffffffffffffffffffffffff16146111d7576040517f08c379a00000000000000000000000000000000000000000000000000000000081526004016111ce906116eb565b60405180910390fd5b600073ffffffffffffffffffffffffffffffffffffffff168173ffffffffffffffffffffffffffffffffffffffff161415611247576040517f08c379a000000000000000000000000000000000000000000000000000000000815260040161123e9061166b565b60405180910390fd5b6112508161125b565b50565b600033905090565b60008060009054906101000a900473ffffffffffffffffffffffffffffffffffffffff169050816000806101000a81548173ffffffffffffffffffffffffffffffffffffffff021916908373ffffffffffffffffffffffffffffffffffffffff1602179055508173ffffffffffffffffffffffffffffffffffffffff168173ffffffffffffffffffffffffffffffffffffffff167f8be0079c531659141344cd1fd0a4f28419497f9722a3daafe3b4186f6b6457e060405160405180910390a35050565b60008135905061132e81611b63565b92915050565b60008151905061134381611b63565b92915050565b60008151905061135881611b7a565b92915050565b60008135905061136d81611b91565b92915050565b60006020828403121561138557600080fd5b60006113938482850161131f565b91505092915050565b6000602082840312156113ae57600080fd5b60006113bc84828501611334565b91505092915050565b6000602082840312156113d757600080fd5b60006113e584828501611349565b91505092915050565b60006020828403121561140057600080fd5b600061140e8482850161135e565b91505092915050565b60008060006060848603121561142c57600080fd5b600061143a8682870161135e565b935050602061144b8682870161131f565b925050604061145c8682870161135e565b9150509250925092565b61146f8161190c565b82525050565b61147e8161191e565b82525050565b6000611491602683611871565b915061149c82611983565b604082019050919050565b60006114b4601c83611871565b91506114bf826119d2565b602082019050919050565b60006114d7602a83611871565b91506114e2826119fb565b604082019050919050565b60006114fa603483611871565b915061150582611a4a565b604082019050919050565b600061151d602083611871565b915061152882611a99565b602082019050919050565b6000611540602083611871565b915061154b82611ac2565b602082019050919050565b6000611563603383611871565b915061156e82611aeb565b604082019050919050565b6000611586602083611871565b915061159182611b3a565b602082019050919050565b6115a58161194a565b82525050565b60006020820190506115c06000830184611466565b92915050565b60006060820190506115db6000830186611466565b6115e86020830185611466565b6115f5604083018461159c565b949350505050565b60006020820190506116126000830184611475565b92915050565b600060a08201905061162d6000830188611475565b61163a6020830187611466565b611647604083018661159c565b6116546060830185611466565b611661608083018461159c565b9695505050505050565b6000602082019050818103600083015261168481611484565b9050919050565b600060208201905081810360008301526116a4816114a7565b9050919050565b600060208201905081810360008301526116c4816114ca565b9050919050565b600060208201905081810360008301526116e4816114ed565b9050919050565b6000602082019050818103600083015261170481611510565b9050919050565b6000602082019050818103600083015261172481611533565b9050919050565b6000602082019050818103600083015261174481611556565b9050919050565b6000602082019050818103600083015261176481611579565b9050919050565b6000602082019050611780600083018461159c565b92915050565b600060608201905061179b600083018661159c565b6117a8602083018561159c565b6117b56040830184611466565b949350505050565b600060a0820190506117d2600083018861159c565b6117df602083018761159c565b6117ec6040830186611466565b6117f96060830185611466565b611806608083018461159c565b9695505050505050565b600060c082019050611825600083018961159c565b611832602083018861159c565b61183f6040830187611466565b61184c606083018661159c565b6118596080830185611466565b61186660a083018461159c565b979650505050505050565b600082825260208201905092915050565b600061188d8261194a565b91506118988361194a565b9250827fffffffffffffffffffffffffffffffffffffffffffffffffffffffffffffffff038211156118cd576118cc611954565b5b828201905092915050565b60006118e38261194a565b91506118ee8361194a565b92508282101561190157611900611954565b5b828203905092915050565b60006119178261192a565b9050919050565b60008115159050919050565b600073ffffffffffffffffffffffffffffffffffffffff82169050919050565b6000819050919050565b7f4e487b7100000000000000000000000000000000000000000000000000000000600052601160045260246000fd5b7f4f776e61626c653a206e6577206f776e657220697320746865207a65726f206160008201527f6464726573730000000000000000000000000000000000000000000000000000602082015250565b7f4e756c6c7350657454726164652f446f206e6f7420726573656c6c2e00000000600082015250565b7f4e756c6c7350657454726164652f43757272656e7420706574206973206e6f7460008201527f20617070726f7665642e00000000000000000000000000000000000000000000602082015250565b7f4e756c6c7350657454726164652f5472616e73666572206661696c65643a206960008201527f74206d617920626520756e617070726f7665642e000000000000000000000000602082015250565b7f4f776e61626c653a2063616c6c6572206973206e6f7420746865206f776e6572600082015250565b7f4e756c6c7350657454726164652f50657420696420697320696c6c6567616c2e600082015250565b7f4e756c6c7350657454726164652f43757272656e746c79207065747320646f2060008201527f6e6f7420737570706f727420627579696e672e00000000000000000000000000602082015250565b7f4e756c6c7350657454726164652f556e737570706f7274656420746f6b656e2e600082015250565b611b6c8161190c565b8114611b7757600080fd5b50565b611b838161191e565b8114611b8e57600080fd5b50565b611b9a8161194a565b8114611ba557600080fd5b5056fea26469706673582212206919ce72f9159269e6c94adaa78c5d81e0da73577c4031318d621618141aed1c64736f6c63430008040033",
  "linkReferences": {},
  "deployedLinkReferences": {}
}