{
  "_format": "hh-sol-artifact-1",
  "contractName": "NullsEggToken",
  "sourceName": "contracts/v1/NullsEggToken.sol",
  "abi": [
    {
      "inputs": [],
      "stateMutability": "nonpayable",
      "type": "constructor"
    },
    {
      "anonymous": false,
      "inputs": [
        {
          "indexed": true,
          "internalType": "address",
          "name": "owner",
          "type": "address"
        },
        {
          "indexed": true,
          "internalType": "address",
          "name": "spender",
          "type": "address"
        },
        {
          "indexed": false,
          "internalType": "uint256",
          "name": "value",
          "type": "uint256"
        }
      ],
      "name": "Approval",
      "type": "event"
    },
    {
      "anonymous": false,
      "inputs": [
        {
          "indexed": true,
          "internalType": "address",
          "name": "from",
          "type": "address"
        },
        {
          "indexed": true,
          "internalType": "address",
          "name": "to",
          "type": "address"
        },
        {
          "indexed": false,
          "internalType": "uint256",
          "name": "value",
          "type": "uint256"
        }
      ],
      "name": "Transfer",
      "type": "event"
    },
    {
      "inputs": [],
      "name": "DOMAIN_SEPARATOR",
      "outputs": [
        {
          "internalType": "bytes32",
          "name": "",
          "type": "bytes32"
        }
      ],
      "stateMutability": "view",
      "type": "function"
    },
    {
      "inputs": [
        {
          "internalType": "address",
          "name": "owner",
          "type": "address"
        },
        {
          "internalType": "address",
          "name": "spender",
          "type": "address"
        }
      ],
      "name": "allowance",
      "outputs": [
        {
          "internalType": "uint256",
          "name": "",
          "type": "uint256"
        }
      ],
      "stateMutability": "view",
      "type": "function"
    },
    {
      "inputs": [
        {
          "internalType": "address",
          "name": "spender",
          "type": "address"
        },
        {
          "internalType": "uint256",
          "name": "amount",
          "type": "uint256"
        }
      ],
      "name": "approve",
      "outputs": [
        {
          "internalType": "bool",
          "name": "",
          "type": "bool"
        }
      ],
      "stateMutability": "nonpayable",
      "type": "function"
    },
    {
      "inputs": [
        {
          "internalType": "address",
          "name": "account",
          "type": "address"
        }
      ],
      "name": "balanceOf",
      "outputs": [
        {
          "internalType": "uint256",
          "name": "",
          "type": "uint256"
        }
      ],
      "stateMutability": "view",
      "type": "function"
    },
    {
      "inputs": [
        {
          "internalType": "address",
          "name": "player",
          "type": "address"
        },
        {
          "internalType": "uint256",
          "name": "total",
          "type": "uint256"
        }
      ],
      "name": "burn",
      "outputs": [],
      "stateMutability": "nonpayable",
      "type": "function"
    },
    {
      "inputs": [],
      "name": "decimals",
      "outputs": [
        {
          "internalType": "uint8",
          "name": "",
          "type": "uint8"
        }
      ],
      "stateMutability": "view",
      "type": "function"
    },
    {
      "inputs": [
        {
          "internalType": "address",
          "name": "spender",
          "type": "address"
        },
        {
          "internalType": "uint256",
          "name": "subtractedValue",
          "type": "uint256"
        }
      ],
      "name": "decreaseAllowance",
      "outputs": [
        {
          "internalType": "bool",
          "name": "",
          "type": "bool"
        }
      ],
      "stateMutability": "nonpayable",
      "type": "function"
    },
    {
      "inputs": [
        {
          "internalType": "address",
          "name": "spender",
          "type": "address"
        },
        {
          "internalType": "uint256",
          "name": "addedValue",
          "type": "uint256"
        }
      ],
      "name": "increaseAllowance",
      "outputs": [
        {
          "internalType": "bool",
          "name": "",
          "type": "bool"
        }
      ],
      "stateMutability": "nonpayable",
      "type": "function"
    },
    {
      "inputs": [
        {
          "internalType": "address",
          "name": "player",
          "type": "address"
        },
        {
          "internalType": "uint256",
          "name": "total",
          "type": "uint256"
        }
      ],
      "name": "mint",
      "outputs": [],
      "stateMutability": "nonpayable",
      "type": "function"
    },
    {
      "inputs": [
        {
          "internalType": "address",
          "name": "oper",
          "type": "address"
        }
      ],
      "name": "modifierOper",
      "outputs": [],
      "stateMutability": "nonpayable",
      "type": "function"
    },
    {
      "inputs": [
        {
          "internalType": "address",
          "name": "owner",
          "type": "address"
        }
      ],
      "name": "modifierOwner",
      "outputs": [],
      "stateMutability": "nonpayable",
      "type": "function"
    },
    {
      "inputs": [],
      "name": "name",
      "outputs": [
        {
          "internalType": "string",
          "name": "",
          "type": "string"
        }
      ],
      "stateMutability": "view",
      "type": "function"
    },
    {
      "inputs": [
        {
          "internalType": "address",
          "name": "owner",
          "type": "address"
        }
      ],
      "name": "nonces",
      "outputs": [
        {
          "internalType": "uint256",
          "name": "",
          "type": "uint256"
        }
      ],
      "stateMutability": "view",
      "type": "function"
    },
    {
      "inputs": [
        {
          "internalType": "address",
          "name": "owner",
          "type": "address"
        },
        {
          "internalType": "address",
          "name": "spender",
          "type": "address"
        },
        {
          "internalType": "uint256",
          "name": "value",
          "type": "uint256"
        },
        {
          "internalType": "uint256",
          "name": "deadline",
          "type": "uint256"
        },
        {
          "internalType": "uint8",
          "name": "v",
          "type": "uint8"
        },
        {
          "internalType": "bytes32",
          "name": "r",
          "type": "bytes32"
        },
        {
          "internalType": "bytes32",
          "name": "s",
          "type": "bytes32"
        }
      ],
      "name": "permit",
      "outputs": [],
      "stateMutability": "nonpayable",
      "type": "function"
    },
    {
      "inputs": [],
      "name": "symbol",
      "outputs": [
        {
          "internalType": "string",
          "name": "",
          "type": "string"
        }
      ],
      "stateMutability": "view",
      "type": "function"
    },
    {
      "inputs": [],
      "name": "totalSupply",
      "outputs": [
        {
          "internalType": "uint256",
          "name": "",
          "type": "uint256"
        }
      ],
      "stateMutability": "view",
      "type": "function"
    },
    {
      "inputs": [
        {
          "internalType": "address",
          "name": "recipient",
          "type": "address"
        },
        {
          "internalType": "uint256",
          "name": "amount",
          "type": "uint256"
        }
      ],
      "name": "transfer",
      "outputs": [
        {
          "internalType": "bool",
          "name": "",
          "type": "bool"
        }
      ],
      "stateMutability": "nonpayable",
      "type": "function"
    },
    {
      "inputs": [
        {
          "internalType": "address",
          "name": "sender",
          "type": "address"
        },
        {
          "internalType": "address",
          "name": "recipient",
          "type": "address"
        },
        {
          "internalType": "uint256",
          "name": "amount",
          "type": "uint256"
        }
      ],
      "name": "transferFrom",
      "outputs": [
        {
          "internalType": "bool",
          "name": "",
          "type": "bool"
        }
      ],
      "stateMutability": "nonpayable",
      "type": "function"
    }
  ],
  "bytecode": "0x6101406040526012600660006101000a81548160ff021916908360ff1602179055507f6e71edae12b1b97f4d1f60370fef10105fa2faae0126114a169c64845d6126c9610120908152503480156200005657600080fd5b506040518060400160405280600f81526020017f4e756c6c7345676720546f6b656e2000000000000000000000000000000000008152506040518060400160405280600381526020017f4e45540000000000000000000000000000000000000000000000000000000000815250816040518060400160405280600181526020017f310000000000000000000000000000000000000000000000000000000000000081525060008280519060200120905060008280519060200120905060007f8b73c3c69bb8fe3d512ecc4cf759cc79239f7b179b0ffacaa9a75d522b39400f90508260c081815250508160e081815250504660a08181525050620001628184846200024560201b60201c565b60808181525050806101008181525050505050505081600490805190602001906200018f9291906200029f565b508060059080519060200190620001a89291906200029f565b50505033600660016101000a81548173ffffffffffffffffffffffffffffffffffffffff021916908373ffffffffffffffffffffffffffffffffffffffff16021790555033600760006101000a81548173ffffffffffffffffffffffffffffffffffffffff021916908373ffffffffffffffffffffffffffffffffffffffff1602179055506200023f60006200028160201b60201c565b6200048c565b600083838346306040516020016200026295949392919062000382565b6040516020818303038152906040528051906020012090509392505050565b80600660006101000a81548160ff021916908360ff16021790555050565b828054620002ad9062000427565b90600052602060002090601f016020900481019282620002d157600085556200031d565b82601f10620002ec57805160ff19168380011785556200031d565b828001600101855582156200031d579182015b828111156200031c578251825591602001919060010190620002ff565b5b5090506200032c919062000330565b5090565b5b808211156200034b57600081600090555060010162000331565b5090565b6200035a81620003df565b82525050565b6200036b81620003f3565b82525050565b6200037c816200041d565b82525050565b600060a08201905062000399600083018862000360565b620003a8602083018762000360565b620003b7604083018662000360565b620003c6606083018562000371565b620003d560808301846200034f565b9695505050505050565b6000620003ec82620003fd565b9050919050565b6000819050919050565b600073ffffffffffffffffffffffffffffffffffffffff82169050919050565b6000819050919050565b600060028204905060018216806200044057607f821691505b602082108114156200045757620004566200045d565b5b50919050565b7f4e487b7100000000000000000000000000000000000000000000000000000000600052602260045260246000fd5b60805160a05160c05160e0516101005161012051612b51620004dc6000396000610b9f015260006111cf01526000611211015260006111f00152600061117c015260006111a40152612b516000f3fe608060405234801561001057600080fd5b50600436106101165760003560e01c806370a08231116100a2578063a457c2d711610071578063a457c2d7146102f5578063a9059cbb14610325578063c27735e114610355578063d505accf14610371578063dd62ed3e1461038d57610116565b806370a082311461025b5780637ecebe001461028b57806395d89b41146102bb5780639dc29fac146102d957610116565b8063313ce567116100e9578063313ce567146101b75780633644e515146101d557806339509351146101f357806340c10f19146102235780634fb555db1461023f57610116565b806306fdde031461011b578063095ea7b31461013957806318160ddd1461016957806323b872dd14610187575b600080fd5b6101236103bd565b604051610130919061218c565b60405180910390f35b610153600480360381019061014e9190611cb6565b61044f565b604051610160919061205d565b60405180910390f35b61017161046d565b60405161017e91906123ee565b60405180910390f35b6101a1600480360381019061019c9190611bc9565b610477565b6040516101ae919061205d565b60405180910390f35b6101bf61056f565b6040516101cc9190612409565b60405180910390f35b6101dd610586565b6040516101ea9190612078565b60405180910390f35b61020d60048036038101906102089190611cb6565b610595565b60405161021a919061205d565b60405180910390f35b61023d60048036038101906102389190611cb6565b610641565b005b61025960048036038101906102549190611b64565b6106df565b005b61027560048036038101906102709190611b64565b6107b3565b60405161028291906123ee565b60405180910390f35b6102a560048036038101906102a09190611b64565b6107fc565b6040516102b291906123ee565b60405180910390f35b6102c361084b565b6040516102d0919061218c565b60405180910390f35b6102f360048036038101906102ee9190611cb6565b6108dd565b005b61030f600480360381019061030a9190611cb6565b61097b565b60405161031c919061205d565b60405180910390f35b61033f600480360381019061033a9190611cb6565b610a66565b60405161034c919061205d565b60405180910390f35b61036f600480360381019061036a9190611b64565b610a84565b005b61038b60048036038101906103869190611c18565b610b58565b005b6103a760048036038101906103a29190611b8d565b610c9a565b6040516103b491906123ee565b60405180910390f35b6060600480546103cc90612567565b80601f01602080910402602001604051908101604052809291908181526020018280546103f890612567565b80156104455780601f1061041a57610100808354040283529160200191610445565b820191906000526020600020905b81548152906001019060200180831161042857829003601f168201915b5050505050905090565b600061046361045c610d21565b8484610d29565b6001905092915050565b6000600354905090565b6000610484848484610ef4565b6000600260008673ffffffffffffffffffffffffffffffffffffffff1673ffffffffffffffffffffffffffffffffffffffff16815260200190815260200160002060006104cf610d21565b73ffffffffffffffffffffffffffffffffffffffff1673ffffffffffffffffffffffffffffffffffffffff1681526020019081526020016000205490508281101561054f576040517f08c379a00000000000000000000000000000000000000000000000000000000081526004016105469061232e565b60405180910390fd5b6105638561055b610d21565b858403610d29565b60019150509392505050565b6000600660009054906101000a900460ff16905090565b6000610590611178565b905090565b60006106376105a2610d21565b8484600260006105b0610d21565b73ffffffffffffffffffffffffffffffffffffffff1673ffffffffffffffffffffffffffffffffffffffff16815260200190815260200160002060008873ffffffffffffffffffffffffffffffffffffffff1673ffffffffffffffffffffffffffffffffffffffff16815260200190815260200160002054610632919061244b565b610d29565b6001905092915050565b600760009054906101000a900473ffffffffffffffffffffffffffffffffffffffff1673ffffffffffffffffffffffffffffffffffffffff163373ffffffffffffffffffffffffffffffffffffffff16146106d1576040517f08c379a00000000000000000000000000000000000000000000000000000000081526004016106c89061228e565b60405180910390fd5b6106db828261123b565b5050565b600660019054906101000a900473ffffffffffffffffffffffffffffffffffffffff1673ffffffffffffffffffffffffffffffffffffffff163373ffffffffffffffffffffffffffffffffffffffff161461076f576040517f08c379a0000000000000000000000000000000000000000000000000000000008152600401610766906122ce565b60405180910390fd5b80600660016101000a81548173ffffffffffffffffffffffffffffffffffffffff021916908373ffffffffffffffffffffffffffffffffffffffff16021790555050565b6000600160008373ffffffffffffffffffffffffffffffffffffffff1673ffffffffffffffffffffffffffffffffffffffff168152602001908152602001600020549050919050565b60006108446000808473ffffffffffffffffffffffffffffffffffffffff1673ffffffffffffffffffffffffffffffffffffffff16815260200190815260200160002061139c565b9050919050565b60606005805461085a90612567565b80601f016020809104026020016040519081016040528092919081815260200182805461088690612567565b80156108d35780601f106108a8576101008083540402835291602001916108d3565b820191906000526020600020905b8154815290600101906020018083116108b657829003601f168201915b5050505050905090565b600760009054906101000a900473ffffffffffffffffffffffffffffffffffffffff1673ffffffffffffffffffffffffffffffffffffffff163373ffffffffffffffffffffffffffffffffffffffff161461096d576040517f08c379a00000000000000000000000000000000000000000000000000000000081526004016109649061228e565b60405180910390fd5b61097782826113aa565b5050565b6000806002600061098a610d21565b73ffffffffffffffffffffffffffffffffffffffff1673ffffffffffffffffffffffffffffffffffffffff16815260200190815260200160002060008573ffffffffffffffffffffffffffffffffffffffff1673ffffffffffffffffffffffffffffffffffffffff16815260200190815260200160002054905082811015610a47576040517f08c379a0000000000000000000000000000000000000000000000000000000008152600401610a3e906123ae565b60405180910390fd5b610a5b610a52610d21565b85858403610d29565b600191505092915050565b6000610a7a610a73610d21565b8484610ef4565b6001905092915050565b600660019054906101000a900473ffffffffffffffffffffffffffffffffffffffff1673ffffffffffffffffffffffffffffffffffffffff163373ffffffffffffffffffffffffffffffffffffffff1614610b14576040517f08c379a0000000000000000000000000000000000000000000000000000000008152600401610b0b906122ce565b60405180910390fd5b80600760006101000a81548173ffffffffffffffffffffffffffffffffffffffff021916908373ffffffffffffffffffffffffffffffffffffffff16021790555050565b83421115610b9b576040517f08c379a0000000000000000000000000000000000000000000000000000000008152600401610b929061224e565b60405180910390fd5b60007f0000000000000000000000000000000000000000000000000000000000000000888888610bca8c611583565b89604051602001610be096959493929190612093565b6040516020818303038152906040528051906020012090506000610c03826115e0565b90506000610c13828787876115fa565b90508973ffffffffffffffffffffffffffffffffffffffff168173ffffffffffffffffffffffffffffffffffffffff1614610c83576040517f08c379a0000000000000000000000000000000000000000000000000000000008152600401610c7a9061230e565b60405180910390fd5b610c8e8a8a8a610d29565b50505050505050505050565b6000600260008473ffffffffffffffffffffffffffffffffffffffff1673ffffffffffffffffffffffffffffffffffffffff16815260200190815260200160002060008373ffffffffffffffffffffffffffffffffffffffff1673ffffffffffffffffffffffffffffffffffffffff16815260200190815260200160002054905092915050565b600033905090565b600073ffffffffffffffffffffffffffffffffffffffff168373ffffffffffffffffffffffffffffffffffffffff161415610d99576040517f08c379a0000000000000000000000000000000000000000000000000000000008152600401610d909061238e565b60405180910390fd5b600073ffffffffffffffffffffffffffffffffffffffff168273ffffffffffffffffffffffffffffffffffffffff161415610e09576040517f08c379a0000000000000000000000000000000000000000000000000000000008152600401610e009061222e565b60405180910390fd5b80600260008573ffffffffffffffffffffffffffffffffffffffff1673ffffffffffffffffffffffffffffffffffffffff16815260200190815260200160002060008473ffffffffffffffffffffffffffffffffffffffff1673ffffffffffffffffffffffffffffffffffffffff168152602001908152602001600020819055508173ffffffffffffffffffffffffffffffffffffffff168373ffffffffffffffffffffffffffffffffffffffff167f8c5be1e5ebec7d5bd14f71427d1e84f3dd0314c0f7b2291e5b200ac8c7c3b92583604051610ee791906123ee565b60405180910390a3505050565b600073ffffffffffffffffffffffffffffffffffffffff168373ffffffffffffffffffffffffffffffffffffffff161415610f64576040517f08c379a0000000000000000000000000000000000000000000000000000000008152600401610f5b9061236e565b60405180910390fd5b600073ffffffffffffffffffffffffffffffffffffffff168273ffffffffffffffffffffffffffffffffffffffff161415610fd4576040517f08c379a0000000000000000000000000000000000000000000000000000000008152600401610fcb906121ce565b60405180910390fd5b610fdf838383611625565b6000600160008573ffffffffffffffffffffffffffffffffffffffff1673ffffffffffffffffffffffffffffffffffffffff16815260200190815260200160002054905081811015611066576040517f08c379a000000000000000000000000000000000000000000000000000000000815260040161105d9061226e565b60405180910390fd5b818103600160008673ffffffffffffffffffffffffffffffffffffffff1673ffffffffffffffffffffffffffffffffffffffff1681526020019081526020016000208190555081600160008573ffffffffffffffffffffffffffffffffffffffff1673ffffffffffffffffffffffffffffffffffffffff16815260200190815260200160002060008282546110fb919061244b565b925050819055508273ffffffffffffffffffffffffffffffffffffffff168473ffffffffffffffffffffffffffffffffffffffff167fddf252ad1be2c89b69c2b068fc378daa952ba7f163c4a11628f55a4df523b3ef8460405161115f91906123ee565b60405180910390a361117284848461162a565b50505050565b60007f00000000000000000000000000000000000000000000000000000000000000004614156111ca577f00000000000000000000000000000000000000000000000000000000000000009050611238565b6112357f00000000000000000000000000000000000000000000000000000000000000007f00000000000000000000000000000000000000000000000000000000000000007f000000000000000000000000000000000000000000000000000000000000000061162f565b90505b90565b600073ffffffffffffffffffffffffffffffffffffffff168273ffffffffffffffffffffffffffffffffffffffff1614156112ab576040517f08c379a00000000000000000000000000000000000000000000000000000000081526004016112a2906123ce565b60405180910390fd5b6112b760008383611625565b80600360008282546112c9919061244b565b9250508190555080600160008473ffffffffffffffffffffffffffffffffffffffff1673ffffffffffffffffffffffffffffffffffffffff168152602001908152602001600020600082825461131f919061244b565b925050819055508173ffffffffffffffffffffffffffffffffffffffff16600073ffffffffffffffffffffffffffffffffffffffff167fddf252ad1be2c89b69c2b068fc378daa952ba7f163c4a11628f55a4df523b3ef8360405161138491906123ee565b60405180910390a36113986000838361162a565b5050565b600081600001549050919050565b600073ffffffffffffffffffffffffffffffffffffffff168273ffffffffffffffffffffffffffffffffffffffff16141561141a576040517f08c379a00000000000000000000000000000000000000000000000000000000081526004016114119061234e565b60405180910390fd5b61142682600083611625565b6000600160008473ffffffffffffffffffffffffffffffffffffffff1673ffffffffffffffffffffffffffffffffffffffff168152602001908152602001600020549050818110156114ad576040517f08c379a00000000000000000000000000000000000000000000000000000000081526004016114a4906121ee565b60405180910390fd5b818103600160008573ffffffffffffffffffffffffffffffffffffffff1673ffffffffffffffffffffffffffffffffffffffff16815260200190815260200160002081905550816003600082825461150591906124a1565b92505081905550600073ffffffffffffffffffffffffffffffffffffffff168373ffffffffffffffffffffffffffffffffffffffff167fddf252ad1be2c89b69c2b068fc378daa952ba7f163c4a11628f55a4df523b3ef8460405161156a91906123ee565b60405180910390a361157e8360008461162a565b505050565b6000806000808473ffffffffffffffffffffffffffffffffffffffff1673ffffffffffffffffffffffffffffffffffffffff16815260200190815260200160002090506115cf8161139c565b91506115da81611669565b50919050565b60006115f36115ed611178565b8361167f565b9050919050565b600080600061160b878787876116b2565b91509150611618816117bf565b8192505050949350505050565b505050565b505050565b6000838383463060405160200161164a9594939291906120f4565b6040516020818303038152906040528051906020012090509392505050565b6001816000016000828254019250508190555050565b60008282604051602001611694929190612026565b60405160208183030381529060405280519060200120905092915050565b6000807f7fffffffffffffffffffffffffffffff5d576e7357a4501ddfe92f46681b20a08360001c11156116ed5760006003915091506117b6565b601b8560ff16141580156117055750601c8560ff1614155b156117175760006004915091506117b6565b60006001878787876040516000815260200160405260405161173c9493929190612147565b6020604051602081039080840390855afa15801561175e573d6000803e3d6000fd5b505050602060405103519050600073ffffffffffffffffffffffffffffffffffffffff168173ffffffffffffffffffffffffffffffffffffffff1614156117ad576000600192509250506117b6565b80600092509250505b94509492505050565b600060048111156117f9577f4e487b7100000000000000000000000000000000000000000000000000000000600052602160045260246000fd5b816004811115611832577f4e487b7100000000000000000000000000000000000000000000000000000000600052602160045260246000fd5b141561183d57611b0d565b60016004811115611877577f4e487b7100000000000000000000000000000000000000000000000000000000600052602160045260246000fd5b8160048111156118b0577f4e487b7100000000000000000000000000000000000000000000000000000000600052602160045260246000fd5b14156118f1576040517f08c379a00000000000000000000000000000000000000000000000000000000081526004016118e8906121ae565b60405180910390fd5b6002600481111561192b577f4e487b7100000000000000000000000000000000000000000000000000000000600052602160045260246000fd5b816004811115611964577f4e487b7100000000000000000000000000000000000000000000000000000000600052602160045260246000fd5b14156119a5576040517f08c379a000000000000000000000000000000000000000000000000000000000815260040161199c9061220e565b60405180910390fd5b600360048111156119df577f4e487b7100000000000000000000000000000000000000000000000000000000600052602160045260246000fd5b816004811115611a18577f4e487b7100000000000000000000000000000000000000000000000000000000600052602160045260246000fd5b1415611a59576040517f08c379a0000000000000000000000000000000000000000000000000000000008152600401611a50906122ae565b60405180910390fd5b600480811115611a92577f4e487b7100000000000000000000000000000000000000000000000000000000600052602160045260246000fd5b816004811115611acb577f4e487b7100000000000000000000000000000000000000000000000000000000600052602160045260246000fd5b1415611b0c576040517f08c379a0000000000000000000000000000000000000000000000000000000008152600401611b03906122ee565b60405180910390fd5b5b50565b600081359050611b1f81612abf565b92915050565b600081359050611b3481612ad6565b92915050565b600081359050611b4981612aed565b92915050565b600081359050611b5e81612b04565b92915050565b600060208284031215611b7657600080fd5b6000611b8484828501611b10565b91505092915050565b60008060408385031215611ba057600080fd5b6000611bae85828601611b10565b9250506020611bbf85828601611b10565b9150509250929050565b600080600060608486031215611bde57600080fd5b6000611bec86828701611b10565b9350506020611bfd86828701611b10565b9250506040611c0e86828701611b3a565b9150509250925092565b600080600080600080600060e0888a031215611c3357600080fd5b6000611c418a828b01611b10565b9750506020611c528a828b01611b10565b9650506040611c638a828b01611b3a565b9550506060611c748a828b01611b3a565b9450506080611c858a828b01611b4f565b93505060a0611c968a828b01611b25565b92505060c0611ca78a828b01611b25565b91505092959891949750929550565b60008060408385031215611cc957600080fd5b6000611cd785828601611b10565b9250506020611ce885828601611b3a565b9150509250929050565b611cfb816124d5565b82525050565b611d0a816124e7565b82525050565b611d19816124f3565b82525050565b611d30611d2b826124f3565b612599565b82525050565b6000611d4182612424565b611d4b818561242f565b9350611d5b818560208601612534565b611d6481612601565b840191505092915050565b6000611d7c60188361242f565b9150611d8782612612565b602082019050919050565b6000611d9f60238361242f565b9150611daa8261263b565b604082019050919050565b6000611dc260228361242f565b9150611dcd8261268a565b604082019050919050565b6000611de5601f8361242f565b9150611df0826126d9565b602082019050919050565b6000611e0860228361242f565b9150611e1382612702565b604082019050919050565b6000611e2b600283612440565b9150611e3682612751565b600282019050919050565b6000611e4e601d8361242f565b9150611e598261277a565b602082019050919050565b6000611e7160268361242f565b9150611e7c826127a3565b604082019050919050565b6000611e94601d8361242f565b9150611e9f826127f2565b602082019050919050565b6000611eb760228361242f565b9150611ec28261281b565b604082019050919050565b6000611eda60188361242f565b9150611ee58261286a565b602082019050919050565b6000611efd60228361242f565b9150611f0882612893565b604082019050919050565b6000611f20601e8361242f565b9150611f2b826128e2565b602082019050919050565b6000611f4360288361242f565b9150611f4e8261290b565b604082019050919050565b6000611f6660218361242f565b9150611f718261295a565b604082019050919050565b6000611f8960258361242f565b9150611f94826129a9565b604082019050919050565b6000611fac60248361242f565b9150611fb7826129f8565b604082019050919050565b6000611fcf60258361242f565b9150611fda82612a47565b604082019050919050565b6000611ff2601f8361242f565b9150611ffd82612a96565b602082019050919050565b6120118161251d565b82525050565b61202081612527565b82525050565b600061203182611e1e565b915061203d8285611d1f565b60208201915061204d8284611d1f565b6020820191508190509392505050565b60006020820190506120726000830184611d01565b92915050565b600060208201905061208d6000830184611d10565b92915050565b600060c0820190506120a86000830189611d10565b6120b56020830188611cf2565b6120c26040830187611cf2565b6120cf6060830186612008565b6120dc6080830185612008565b6120e960a0830184612008565b979650505050505050565b600060a0820190506121096000830188611d10565b6121166020830187611d10565b6121236040830186611d10565b6121306060830185612008565b61213d6080830184611cf2565b9695505050505050565b600060808201905061215c6000830187611d10565b6121696020830186612017565b6121766040830185611d10565b6121836060830184611d10565b95945050505050565b600060208201905081810360008301526121a68184611d36565b905092915050565b600060208201905081810360008301526121c781611d6f565b9050919050565b600060208201905081810360008301526121e781611d92565b9050919050565b6000602082019050818103600083015261220781611db5565b9050919050565b6000602082019050818103600083015261222781611dd8565b9050919050565b6000602082019050818103600083015261224781611dfb565b9050919050565b6000602082019050818103600083015261226781611e41565b9050919050565b6000602082019050818103600083015261228781611e64565b9050919050565b600060208201905081810360008301526122a781611e87565b9050919050565b600060208201905081810360008301526122c781611eaa565b9050919050565b600060208201905081810360008301526122e781611ecd565b9050919050565b6000602082019050818103600083015261230781611ef0565b9050919050565b6000602082019050818103600083015261232781611f13565b9050919050565b6000602082019050818103600083015261234781611f36565b9050919050565b6000602082019050818103600083015261236781611f59565b9050919050565b6000602082019050818103600083015261238781611f7c565b9050919050565b600060208201905081810360008301526123a781611f9f565b9050919050565b600060208201905081810360008301526123c781611fc2565b9050919050565b600060208201905081810360008301526123e781611fe5565b9050919050565b60006020820190506124036000830184612008565b92915050565b600060208201905061241e6000830184612017565b92915050565b600081519050919050565b600082825260208201905092915050565b600081905092915050565b60006124568261251d565b91506124618361251d565b9250827fffffffffffffffffffffffffffffffffffffffffffffffffffffffffffffffff03821115612496576124956125a3565b5b828201905092915050565b60006124ac8261251d565b91506124b78361251d565b9250828210156124ca576124c96125a3565b5b828203905092915050565b60006124e0826124fd565b9050919050565b60008115159050919050565b6000819050919050565b600073ffffffffffffffffffffffffffffffffffffffff82169050919050565b6000819050919050565b600060ff82169050919050565b60005b83811015612552578082015181840152602081019050612537565b83811115612561576000848401525b50505050565b6000600282049050600182168061257f57607f821691505b60208210811415612593576125926125d2565b5b50919050565b6000819050919050565b7f4e487b7100000000000000000000000000000000000000000000000000000000600052601160045260246000fd5b7f4e487b7100000000000000000000000000000000000000000000000000000000600052602260045260246000fd5b6000601f19601f8301169050919050565b7f45434453413a20696e76616c6964207369676e61747572650000000000000000600082015250565b7f45524332303a207472616e7366657220746f20746865207a65726f206164647260008201527f6573730000000000000000000000000000000000000000000000000000000000602082015250565b7f45524332303a206275726e20616d6f756e7420657863656564732062616c616e60008201527f6365000000000000000000000000000000000000000000000000000000000000602082015250565b7f45434453413a20696e76616c6964207369676e6174757265206c656e67746800600082015250565b7f45524332303a20617070726f766520746f20746865207a65726f20616464726560008201527f7373000000000000000000000000000000000000000000000000000000000000602082015250565b7f1901000000000000000000000000000000000000000000000000000000000000600082015250565b7f45524332305065726d69743a206578706972656420646561646c696e65000000600082015250565b7f45524332303a207472616e7366657220616d6f756e742065786365656473206260008201527f616c616e63650000000000000000000000000000000000000000000000000000602082015250565b7f4e756c6c73576f726c64546f6b656e2f4e6f206f70657220726f6c652e000000600082015250565b7f45434453413a20696e76616c6964207369676e6174757265202773272076616c60008201527f7565000000000000000000000000000000000000000000000000000000000000602082015250565b7f4e756c6c73576f726c64546f6b656e2f4e6f20726f6c652e0000000000000000600082015250565b7f45434453413a20696e76616c6964207369676e6174757265202776272076616c60008201527f7565000000000000000000000000000000000000000000000000000000000000602082015250565b7f45524332305065726d69743a20696e76616c6964207369676e61747572650000600082015250565b7f45524332303a207472616e7366657220616d6f756e742065786365656473206160008201527f6c6c6f77616e6365000000000000000000000000000000000000000000000000602082015250565b7f45524332303a206275726e2066726f6d20746865207a65726f2061646472657360008201527f7300000000000000000000000000000000000000000000000000000000000000602082015250565b7f45524332303a207472616e736665722066726f6d20746865207a65726f20616460008201527f6472657373000000000000000000000000000000000000000000000000000000602082015250565b7f45524332303a20617070726f76652066726f6d20746865207a65726f2061646460008201527f7265737300000000000000000000000000000000000000000000000000000000602082015250565b7f45524332303a2064656372656173656420616c6c6f77616e63652062656c6f7760008201527f207a65726f000000000000000000000000000000000000000000000000000000602082015250565b7f45524332303a206d696e7420746f20746865207a65726f206164647265737300600082015250565b612ac8816124d5565b8114612ad357600080fd5b50565b612adf816124f3565b8114612aea57600080fd5b50565b612af68161251d565b8114612b0157600080fd5b50565b612b0d81612527565b8114612b1857600080fd5b5056fea2646970667358221220fef915ec2ec19a6b6df4c2faf180d0dfd91488b3985633212fbef8af99ea458a64736f6c63430008040033",
  "linkReferences": {},
  "deployedLinkReferences": {}
}