{
  "_format": "hh-sol-artifact-1",
  "contractName": "NullsRankManager",
  "sourceName": "contracts/v1/games/NullsRankManager.sol",
  "abi": [
    {
      "anonymous": false,
      "inputs": [
        {
          "indexed": false,
          "internalType": "uint256",
          "name": "gameId",
          "type": "uint256"
        },
        {
          "indexed": false,
          "internalType": "uint256",
          "name": "scene",
          "type": "uint256"
        },
        {
          "indexed": false,
          "internalType": "uint256",
          "name": "item",
          "type": "uint256"
        },
        {
          "indexed": false,
          "internalType": "address",
          "name": "player",
          "type": "address"
        },
        {
          "indexed": false,
          "internalType": "bytes",
          "name": "rv",
          "type": "bytes"
        }
      ],
      "name": "GameWrite",
      "type": "event"
    },
    {
      "anonymous": false,
      "inputs": [
        {
          "indexed": false,
          "internalType": "uint256",
          "name": "itemId",
          "type": "uint256"
        },
        {
          "indexed": false,
          "internalType": "uint256",
          "name": "petId",
          "type": "uint256"
        },
        {
          "indexed": false,
          "internalType": "address",
          "name": "token",
          "type": "address"
        },
        {
          "indexed": false,
          "internalType": "uint256",
          "name": "initialCapital",
          "type": "uint256"
        },
        {
          "indexed": false,
          "internalType": "address",
          "name": "creater",
          "type": "address"
        },
        {
          "indexed": false,
          "internalType": "uint8",
          "name": "multiple",
          "type": "uint8"
        },
        {
          "indexed": false,
          "internalType": "address",
          "name": "publicKey",
          "type": "address"
        }
      ],
      "name": "NewRank",
      "type": "event"
    },
    {
      "anonymous": false,
      "inputs": [
        {
          "indexed": true,
          "internalType": "address",
          "name": "previousOwner",
          "type": "address"
        },
        {
          "indexed": true,
          "internalType": "address",
          "name": "newOwner",
          "type": "address"
        }
      ],
      "name": "OwnershipTransferred",
      "type": "event"
    },
    {
      "anonymous": false,
      "inputs": [
        {
          "indexed": false,
          "internalType": "uint256",
          "name": "itemId",
          "type": "uint256"
        },
        {
          "indexed": false,
          "internalType": "bytes32",
          "name": "hv",
          "type": "bytes32"
        },
        {
          "indexed": false,
          "internalType": "uint256",
          "name": "nonce",
          "type": "uint256"
        },
        {
          "indexed": false,
          "internalType": "uint256",
          "name": "deadline",
          "type": "uint256"
        }
      ],
      "name": "RankNewNonce",
      "type": "event"
    },
    {
      "anonymous": false,
      "inputs": [
        {
          "indexed": false,
          "internalType": "uint256",
          "name": "itemId",
          "type": "uint256"
        },
        {
          "indexed": false,
          "internalType": "uint256",
          "name": "challengerPetId",
          "type": "uint256"
        },
        {
          "indexed": false,
          "internalType": "address",
          "name": "challenger",
          "type": "address"
        },
        {
          "indexed": false,
          "internalType": "uint256",
          "name": "bonusPool",
          "type": "uint256"
        },
        {
          "indexed": false,
          "internalType": "bytes32",
          "name": "rv",
          "type": "bytes32"
        },
        {
          "indexed": false,
          "internalType": "bool",
          "name": "isWin",
          "type": "bool"
        },
        {
          "indexed": false,
          "internalType": "uint256",
          "name": "value",
          "type": "uint256"
        },
        {
          "indexed": false,
          "internalType": "string",
          "name": "uuid",
          "type": "string"
        }
      ],
      "name": "RankUpdate",
      "type": "event"
    },
    {
      "inputs": [
        {
          "internalType": "uint256",
          "name": "",
          "type": "uint256"
        }
      ],
      "name": "LastChallengeTime",
      "outputs": [
        {
          "internalType": "uint256",
          "name": "",
          "type": "uint256"
        }
      ],
      "stateMutability": "view",
      "type": "function"
    },
    {
      "inputs": [
        {
          "internalType": "uint256",
          "name": "",
          "type": "uint256"
        }
      ],
      "name": "Ranks",
      "outputs": [
        {
          "internalType": "uint256",
          "name": "petId",
          "type": "uint256"
        },
        {
          "internalType": "address",
          "name": "token",
          "type": "address"
        },
        {
          "internalType": "uint256",
          "name": "ticketAmt",
          "type": "uint256"
        },
        {
          "internalType": "uint256",
          "name": "initialCapital",
          "type": "uint256"
        },
        {
          "internalType": "uint8",
          "name": "multiple",
          "type": "uint8"
        },
        {
          "internalType": "address",
          "name": "creater",
          "type": "address"
        },
        {
          "internalType": "uint256",
          "name": "bonusPool",
          "type": "uint256"
        },
        {
          "internalType": "uint256",
          "name": "ownerBonus",
          "type": "uint256"
        },
        {
          "internalType": "uint256",
          "name": "gameOperatorBonus",
          "type": "uint256"
        },
        {
          "internalType": "uint256",
          "name": "total",
          "type": "uint256"
        }
      ],
      "stateMutability": "view",
      "type": "function"
    },
    {
      "inputs": [
        {
          "internalType": "address",
          "name": "token",
          "type": "address"
        },
        {
          "internalType": "uint256",
          "name": "minInitialCapital",
          "type": "uint256"
        }
      ],
      "name": "addRankToken",
      "outputs": [],
      "stateMutability": "nonpayable",
      "type": "function"
    },
    {
      "inputs": [
        {
          "internalType": "address",
          "name": "creator",
          "type": "address"
        },
        {
          "internalType": "uint256",
          "name": "petId",
          "type": "uint256"
        },
        {
          "internalType": "address",
          "name": "token",
          "type": "address"
        },
        {
          "internalType": "uint8",
          "name": "multiple",
          "type": "uint8"
        },
        {
          "internalType": "uint8",
          "name": "v",
          "type": "uint8"
        },
        {
          "internalType": "bytes32",
          "name": "r",
          "type": "bytes32"
        },
        {
          "internalType": "bytes32",
          "name": "s",
          "type": "bytes32"
        },
        {
          "internalType": "address",
          "name": "pubkey",
          "type": "address"
        }
      ],
      "name": "createRank",
      "outputs": [
        {
          "internalType": "uint256",
          "name": "itemId",
          "type": "uint256"
        }
      ],
      "stateMutability": "nonpayable",
      "type": "function"
    },
    {
      "inputs": [
        {
          "internalType": "address",
          "name": "token",
          "type": "address"
        }
      ],
      "name": "getPrice",
      "outputs": [
        {
          "internalType": "uint256",
          "name": "price",
          "type": "uint256"
        }
      ],
      "stateMutability": "view",
      "type": "function"
    },
    {
      "inputs": [],
      "name": "getRestTime",
      "outputs": [
        {
          "internalType": "uint256",
          "name": "generalPetRestTime",
          "type": "uint256"
        }
      ],
      "stateMutability": "view",
      "type": "function"
    },
    {
      "inputs": [],
      "name": "getSceneId",
      "outputs": [
        {
          "internalType": "uint256",
          "name": "sceneId",
          "type": "uint256"
        }
      ],
      "stateMutability": "view",
      "type": "function"
    },
    {
      "inputs": [
        {
          "internalType": "address",
          "name": "player",
          "type": "address"
        }
      ],
      "name": "nonces",
      "outputs": [
        {
          "internalType": "uint256",
          "name": "",
          "type": "uint256"
        }
      ],
      "stateMutability": "view",
      "type": "function"
    },
    {
      "inputs": [
        {
          "internalType": "uint256",
          "name": "item",
          "type": "uint256"
        },
        {
          "internalType": "bytes32",
          "name": "hv",
          "type": "bytes32"
        },
        {
          "internalType": "bytes32",
          "name": "rv",
          "type": "bytes32"
        }
      ],
      "name": "notify",
      "outputs": [
        {
          "internalType": "bool",
          "name": "",
          "type": "bool"
        }
      ],
      "stateMutability": "nonpayable",
      "type": "function"
    },
    {
      "inputs": [],
      "name": "owner",
      "outputs": [
        {
          "internalType": "address",
          "name": "",
          "type": "address"
        }
      ],
      "stateMutability": "view",
      "type": "function"
    },
    {
      "inputs": [
        {
          "internalType": "uint256",
          "name": "itemId",
          "type": "uint256"
        },
        {
          "internalType": "uint256",
          "name": "challengerPetId",
          "type": "uint256"
        },
        {
          "internalType": "uint256",
          "name": "deadline",
          "type": "uint256"
        },
        {
          "internalType": "string",
          "name": "uuid",
          "type": "string"
        }
      ],
      "name": "pk",
      "outputs": [],
      "stateMutability": "nonpayable",
      "type": "function"
    },
    {
      "inputs": [],
      "name": "renounceOwnership",
      "outputs": [],
      "stateMutability": "nonpayable",
      "type": "function"
    },
    {
      "inputs": [
        {
          "internalType": "address",
          "name": "petToken",
          "type": "address"
        }
      ],
      "name": "setPetToken",
      "outputs": [],
      "stateMutability": "nonpayable",
      "type": "function"
    },
    {
      "inputs": [
        {
          "internalType": "address",
          "name": "proxy",
          "type": "address"
        },
        {
          "internalType": "string",
          "name": "name",
          "type": "string"
        }
      ],
      "name": "setProxy",
      "outputs": [],
      "stateMutability": "nonpayable",
      "type": "function"
    },
    {
      "inputs": [
        {
          "internalType": "uint256",
          "name": "generalPetRestTime",
          "type": "uint256"
        }
      ],
      "name": "setRestTime",
      "outputs": [],
      "stateMutability": "nonpayable",
      "type": "function"
    },
    {
      "inputs": [],
      "name": "test",
      "outputs": [
        {
          "internalType": "bool",
          "name": "",
          "type": "bool"
        }
      ],
      "stateMutability": "view",
      "type": "function"
    },
    {
      "inputs": [
        {
          "internalType": "address",
          "name": "newOwner",
          "type": "address"
        }
      ],
      "name": "transferOwnership",
      "outputs": [],
      "stateMutability": "nonpayable",
      "type": "function"
    }
  ],
  "bytecode": "0x60806040526000600160006101000a81548173ffffffffffffffffffffffffffffffffffffffff021916908373ffffffffffffffffffffffffffffffffffffffff1602179055506000600260006101000a81548173ffffffffffffffffffffffffffffffffffffffff021916908373ffffffffffffffffffffffffffffffffffffffff1602179055506001600260146101000a81548160ff02191690831515021790555061012c600455348015620000b657600080fd5b50620000d7620000cb620000dd60201b60201c565b620000e560201b60201c565b620001a9565b600033905090565b60008060009054906101000a900473ffffffffffffffffffffffffffffffffffffffff169050816000806101000a81548173ffffffffffffffffffffffffffffffffffffffff021916908373ffffffffffffffffffffffffffffffffffffffff1602179055508173ffffffffffffffffffffffffffffffffffffffff168173ffffffffffffffffffffffffffffffffffffffff167f8be0079c531659141344cd1fd0a4f28419497f9722a3daafe3b4186f6b6457e060405160405180910390a35050565b613f2a80620001b96000396000f3fe608060405234801561001057600080fd5b506004361061010b5760003560e01c80638da5cb5b116100a2578063eb507b1311610071578063eb507b13146102b6578063f2fde38b146102ef578063f5a48b6e1461030b578063f8a8fd6d14610329578063fc8359fa146103475761010b565b80638da5cb5b14610230578063c81db8951461024e578063cdb80cf91461026a578063d63a188c146102865761010b565b8063715018a6116100de578063715018a6146101aa57806373278c28146101b457806377e10027146101d05780637ecebe00146102005761010b565b806308dd26f31461011057806341976e09146101405780635cb40c27146101705780636879ce0d1461018c575b600080fd5b61012a60048036038101906101259190612a26565b610363565b60405161013791906132f3565b60405180910390f35b61015a60048036038101906101559190612869565b61037b565b60405161016791906132f3565b60405180910390f35b61018a60048036038101906101859190612869565b610440565b005b610194610500565b6040516101a191906132f3565b60405180910390f35b6101b261050a565b005b6101ce60048036038101906101c991906128bb565b610592565b005b6101ea60048036038101906101e59190612a78565b610708565b6040516101f79190612fa7565b60405180910390f35b61021a60048036038101906102159190612869565b610ace565b60405161022791906132f3565b60405180910390f35b610238610b1e565b6040516102459190612efc565b60405180910390f35b61026860048036038101906102639190612a26565b610b47565b005b610284600480360381019061027f9190612ac7565b610bcd565b005b6102a0600480360381019061029b919061294b565b61101a565b6040516102ad91906132f3565b60405180910390f35b6102d060048036038101906102cb9190612a26565b611911565b6040516102e69a99989796959493929190613337565b60405180910390f35b61030960048036038101906103049190612869565b6119b2565b005b610313611aaa565b60405161032091906132f3565b60405180910390f35b610331611ab4565b60405161033e9190612fa7565b60405180910390f35b610361600480360381019061035c919061290f565b611acb565b005b60076020528060005260406000206000915090505481565b600080600660008473ffffffffffffffffffffffffffffffffffffffff1673ffffffffffffffffffffffffffffffffffffffff168152602001908152602001600020604051806040016040529081600082015481526020016001820160009054906101000a900460ff16151515158152505090508060200151610433576040517f08c379a000000000000000000000000000000000000000000000000000000000815260040161042a906130ad565b60405180910390fd5b8060000151915050919050565b610448611bcf565b73ffffffffffffffffffffffffffffffffffffffff16610466610b1e565b73ffffffffffffffffffffffffffffffffffffffff16146104bc576040517f08c379a00000000000000000000000000000000000000000000000000000000081526004016104b3906131d3565b60405180910390fd5b80600260006101000a81548173ffffffffffffffffffffffffffffffffffffffff021916908373ffffffffffffffffffffffffffffffffffffffff16021790555050565b6000600354905090565b610512611bcf565b73ffffffffffffffffffffffffffffffffffffffff16610530610b1e565b73ffffffffffffffffffffffffffffffffffffffff1614610586576040517f08c379a000000000000000000000000000000000000000000000000000000000815260040161057d906131d3565b60405180910390fd5b6105906000611bd7565b565b61059a611bcf565b73ffffffffffffffffffffffffffffffffffffffff166105b8610b1e565b73ffffffffffffffffffffffffffffffffffffffff161461060e576040517f08c379a0000000000000000000000000000000000000000000000000000000008152600401610605906131d3565b60405180910390fd5b81600160006101000a81548173ffffffffffffffffffffffffffffffffffffffff021916908373ffffffffffffffffffffffffffffffffffffffff160217905550600160009054906101000a900473ffffffffffffffffffffffffffffffffffffffff1673ffffffffffffffffffffffffffffffffffffffff16630e349be430836040518363ffffffff1660e01b81526004016106ac929190612f4e565b602060405180830381600087803b1580156106c657600080fd5b505af11580156106da573d6000803e3d6000fd5b505050506040513d601f19601f820116820180604052508101906106fe9190612a4f565b6003819055505050565b6000600160009054906101000a900473ffffffffffffffffffffffffffffffffffffffff1673ffffffffffffffffffffffffffffffffffffffff163373ffffffffffffffffffffffffffffffffffffffff161461079a576040517f08c379a0000000000000000000000000000000000000000000000000000000008152600401610791906131b3565b60405180910390fd5b6000600a60008581526020019081526020016000206040518060c00160405290816000820154815260200160018201548152602001600282015481526020016003820160009054906101000a900473ffffffffffffffffffffffffffffffffffffffff1673ffffffffffffffffffffffffffffffffffffffff1673ffffffffffffffffffffffffffffffffffffffff1681526020016003820160149054906101000a900460ff16151515158152602001600482018054610859906137d9565b80601f0160208091040260200160405190810160405280929190818152602001828054610885906137d9565b80156108d25780601f106108a7576101008083540402835291602001916108d2565b820191906000526020600020905b8154815290600101906020018083116108b557829003601f168201915b505050505081525050905080602001518514610923576040517f08c379a000000000000000000000000000000000000000000000000000000000815260040161091a90613173565b60405180910390fd5b600073ffffffffffffffffffffffffffffffffffffffff16816060015173ffffffffffffffffffffffffffffffffffffffff161415610997576040517f08c379a000000000000000000000000000000000000000000000000000000000815260040161098e90613213565b60405180910390fd5b80608001516109db576040517f08c379a00000000000000000000000000000000000000000000000000000000081526004016109d2906132d3565b60405180910390fd5b6109f8816060015182602001518584600001518560a00151611c9b565b600081608001901515908115158152505080600a600086815260200190815260200160002060008201518160000155602082015181600101556040820151816002015560608201518160030160006101000a81548173ffffffffffffffffffffffffffffffffffffffff021916908373ffffffffffffffffffffffffffffffffffffffff16021790555060808201518160030160146101000a81548160ff02191690831515021790555060a0820151816004019080519060200190610abe92919061266c565b5090505060019150509392505050565b6000610b17600560008473ffffffffffffffffffffffffffffffffffffffff1673ffffffffffffffffffffffffffffffffffffffff16815260200190815260200160002061252a565b9050919050565b60008060009054906101000a900473ffffffffffffffffffffffffffffffffffffffff16905090565b610b4f611bcf565b73ffffffffffffffffffffffffffffffffffffffff16610b6d610b1e565b73ffffffffffffffffffffffffffffffffffffffff1614610bc3576040517f08c379a0000000000000000000000000000000000000000000000000000000008152600401610bba906131d3565b60405180910390fd5b8060048190555050565b82421115610c10576040517f08c379a0000000000000000000000000000000000000000000000000000000008152600401610c0790613273565b60405180910390fd5b3373ffffffffffffffffffffffffffffffffffffffff16600260009054906101000a900473ffffffffffffffffffffffffffffffffffffffff1673ffffffffffffffffffffffffffffffffffffffff16636352211e866040518263ffffffff1660e01b8152600401610c8291906132f3565b60206040518083038186803b158015610c9a57600080fd5b505afa158015610cae573d6000803e3d6000fd5b505050506040513d601f19601f82011682018060405250810190610cd29190612892565b73ffffffffffffffffffffffffffffffffffffffff1614610d28576040517f08c379a0000000000000000000000000000000000000000000000000000000008152600401610d1f90613193565b60405180910390fd5b60076000858152602001908152602001600020544211610d7d576040517f08c379a0000000000000000000000000000000000000000000000000000000008152600401610d7490613253565b60405180910390fd5b60045442610d8b9190613645565b60076000868152602001908152602001600020819055506000848685610db033612538565b46604051602001610dc59594939291906130cd565b6040516020818303038152906040528051906020012090506000600160009054906101000a900473ffffffffffffffffffffffffffffffffffffffff1673ffffffffffffffffffffffffffffffffffffffff16639884c9f18884336040518463ffffffff1660e01b8152600401610e3e939291906133d3565b602060405180830381600087803b158015610e5857600080fd5b505af1158015610e6c573d6000803e3d6000fd5b505050506040513d601f19601f82011682018060405250810190610e909190612a4f565b90506040518060c001604052808781526020018881526020018281526020013373ffffffffffffffffffffffffffffffffffffffff16815260200160011515815260200185858080601f016020809104026020016040519081016040528093929190818152602001838380828437600081840152601f19601f82011690508083019250505050505050815250600a600084815260200190815260200160002060008201518160000155602082015181600101556040820151816002015560608201518160030160006101000a81548173ffffffffffffffffffffffffffffffffffffffff021916908373ffffffffffffffffffffffffffffffffffffffff16021790555060808201518160030160146101000a81548160ff02191690831515021790555060a0820151816004019080519060200190610fd092919061266c565b509050507f09ccba847bacd23b2ce33fdb45be88eb9b372a20af140c0c7c16edc9355e751d87838388604051611009949392919061340a565b60405180910390a150505050505050565b6000611024611bcf565b73ffffffffffffffffffffffffffffffffffffffff16611042610b1e565b73ffffffffffffffffffffffffffffffffffffffff1614611098576040517f08c379a000000000000000000000000000000000000000000000000000000000815260040161108f906131d3565b60405180910390fd5b600073ffffffffffffffffffffffffffffffffffffffff168973ffffffffffffffffffffffffffffffffffffffff161415611108576040517f08c379a00000000000000000000000000000000000000000000000000000000081526004016110ff90613133565b60405180910390fd5b8873ffffffffffffffffffffffffffffffffffffffff1660016111358a8a8a6111308f612538565b612596565b878787604051600081526020016040526040516111559493929190612fc2565b6020604051602081039080840390855afa158015611177573d6000803e3d6000fd5b5050506020604051035173ffffffffffffffffffffffffffffffffffffffff16146111d7576040517f08c379a00000000000000000000000000000000000000000000000000000000081526004016111ce906131f3565b60405180910390fd5b6000600960008a815260200190815260200160002060009054906101000a900460ff1690506000151581151514611243576040517f08c379a000000000000000000000000000000000000000000000000000000000815260040161123a9061308d565b60405180910390fd5b60011515600660008a73ffffffffffffffffffffffffffffffffffffffff1673ffffffffffffffffffffffffffffffffffffffff16815260200190815260200160002060010160009054906101000a900460ff161515146112d9576040517f08c379a00000000000000000000000000000000000000000000000000000000081526004016112d090613153565b60405180910390fd5b60058760ff1614806112ee5750600a8760ff16145b61132d576040517f08c379a0000000000000000000000000000000000000000000000000000000008152600401611324906132b3565b60405180910390fd5b8973ffffffffffffffffffffffffffffffffffffffff16600260009054906101000a900473ffffffffffffffffffffffffffffffffffffffff1673ffffffffffffffffffffffffffffffffffffffff16636352211e8b6040518263ffffffff1660e01b815260040161139f91906132f3565b60206040518083038186803b1580156113b757600080fd5b505afa1580156113cb573d6000803e3d6000fd5b505050506040513d601f19601f820116820180604052508101906113ef9190612892565b73ffffffffffffffffffffffffffffffffffffffff1614611445576040517f08c379a000000000000000000000000000000000000000000000000000000000815260040161143c90613193565b60405180910390fd5b60ff600260009054906101000a900473ffffffffffffffffffffffffffffffffffffffff1673ffffffffffffffffffffffffffffffffffffffff16637ed418658b6040518263ffffffff1660e01b81526004016114a291906132f3565b60206040518083038186803b1580156114ba57600080fd5b505afa1580156114ce573d6000803e3d6000fd5b505050506040513d601f19601f820116820180604052508101906114f29190612b47565b60ff1614611535576040517f08c379a000000000000000000000000000000000000000000000000000000000815260040161152c90613293565b60405180910390fd5b60008760ff16600660008b73ffffffffffffffffffffffffffffffffffffffff1673ffffffffffffffffffffffffffffffffffffffff1681526020019081526020016000206000015461158891906136cc565b90508873ffffffffffffffffffffffffffffffffffffffff166323b872dd8c30846040518463ffffffff1660e01b81526004016115c793929190612f17565b602060405180830381600087803b1580156115e157600080fd5b505af11580156115f5573d6000803e3d6000fd5b505050506040513d601f19601f8201168201806040525081019061161991906129fd565b50600160009054906101000a900473ffffffffffffffffffffffffffffffffffffffff1673ffffffffffffffffffffffffffffffffffffffff1663b3eafe96600354866040518363ffffffff1660e01b815260040161167992919061330e565b602060405180830381600087803b15801561169357600080fd5b505af11580156116a7573d6000803e3d6000fd5b505050506040513d601f19601f820116820180604052508101906116cb9190612a4f565b92506040518061014001604052808b81526020018a73ffffffffffffffffffffffffffffffffffffffff168152602001600660008c73ffffffffffffffffffffffffffffffffffffffff1673ffffffffffffffffffffffffffffffffffffffff1681526020019081526020016000206000015481526020018281526020018960ff1681526020018c73ffffffffffffffffffffffffffffffffffffffff16815260200182815260200160008152602001600081526020016000815250600860008581526020019081526020016000206000820151816000015560208201518160010160006101000a81548173ffffffffffffffffffffffffffffffffffffffff021916908373ffffffffffffffffffffffffffffffffffffffff160217905550604082015181600201556060820151816003015560808201518160040160006101000a81548160ff021916908360ff16021790555060a08201518160040160016101000a81548173ffffffffffffffffffffffffffffffffffffffff021916908373ffffffffffffffffffffffffffffffffffffffff16021790555060c0820151816005015560e08201518160060155610100820151816007015561012082015181600801559050506001600960008c815260200190815260200160002060006101000a81548160ff0219169083151502179055507f29d68e345952894b88e40cc17e06bb37ccd58224aedae9347dfd10ed2c1d8afd838b8b848f8d8a6040516118fb97969594939291906134d4565b60405180910390a1505098975050505050505050565b60086020528060005260406000206000915090508060000154908060010160009054906101000a900473ffffffffffffffffffffffffffffffffffffffff16908060020154908060030154908060040160009054906101000a900460ff16908060040160019054906101000a900473ffffffffffffffffffffffffffffffffffffffff1690806005015490806006015490806007015490806008015490508a565b6119ba611bcf565b73ffffffffffffffffffffffffffffffffffffffff166119d8610b1e565b73ffffffffffffffffffffffffffffffffffffffff1614611a2e576040517f08c379a0000000000000000000000000000000000000000000000000000000008152600401611a25906131d3565b60405180910390fd5b600073ffffffffffffffffffffffffffffffffffffffff168173ffffffffffffffffffffffffffffffffffffffff161415611a9e576040517f08c379a0000000000000000000000000000000000000000000000000000000008152600401611a959061306d565b60405180910390fd5b611aa781611bd7565b50565b6000600454905090565b6000600260149054906101000a900460ff16905090565b611ad3611bcf565b73ffffffffffffffffffffffffffffffffffffffff16611af1610b1e565b73ffffffffffffffffffffffffffffffffffffffff1614611b47576040517f08c379a0000000000000000000000000000000000000000000000000000000008152600401611b3e906131d3565b60405180910390fd5b604051806040016040528082815260200160011515815250600660008473ffffffffffffffffffffffffffffffffffffffff1673ffffffffffffffffffffffffffffffffffffffff1681526020019081526020016000206000820151816000015560208201518160010160006101000a81548160ff0219169083151502179055509050505050565b600033905090565b60008060009054906101000a900473ffffffffffffffffffffffffffffffffffffffff169050816000806101000a81548173ffffffffffffffffffffffffffffffffffffffff021916908373ffffffffffffffffffffffffffffffffffffffff1602179055508173ffffffffffffffffffffffffffffffffffffffff168173ffffffffffffffffffffffffffffffffffffffff167f8be0079c531659141344cd1fd0a4f28419497f9722a3daafe3b4186f6b6457e060405160405180910390a35050565b60006008600086815260200190815260200160002060405180610140016040529081600082015481526020016001820160009054906101000a900473ffffffffffffffffffffffffffffffffffffffff1673ffffffffffffffffffffffffffffffffffffffff1673ffffffffffffffffffffffffffffffffffffffff16815260200160028201548152602001600382015481526020016004820160009054906101000a900460ff1660ff1660ff1681526020016004820160019054906101000a900473ffffffffffffffffffffffffffffffffffffffff1673ffffffffffffffffffffffffffffffffffffffff1673ffffffffffffffffffffffffffffffffffffffff168152602001600582015481526020016006820154815260200160078201548152602001600882015481525050905060008160c0015111611e14576040517f08c379a0000000000000000000000000000000000000000000000000000000008152600401611e0b90613233565b60405180910390fd5b600081604001519050816020015173ffffffffffffffffffffffffffffffffffffffff166323b872dd8830846040518463ffffffff1660e01b8152600401611e5e93929190612f17565b602060405180830381600087803b158015611e7857600080fd5b505af1158015611e8c573d6000803e3d6000fd5b505050506040513d601f19601f82011682018060405250810190611eb091906129fd565b506000806000611ec48561012001516125fc565b925092509250600a8360ff1685611edb91906136cc565b611ee5919061369b565b8560c001818151611ef69190613645565b91508181525050600a8260ff1685611f0e91906136cc565b611f18919061369b565b8560e001818151611f299190613645565b91508181525050600a8160ff1685611f4191906136cc565b611f4b919061369b565b8561010001818151611f5d9190613645565b91508181525050600f808960f81c1660ff1614156123ab578460c00151600a85611f8791906136cc565b11156122ad57846020015173ffffffffffffffffffffffffffffffffffffffff1663a9059cbb8b8760c001516040518363ffffffff1660e01b8152600401611fd0929190612f7e565b602060405180830381600087803b158015611fea57600080fd5b505af1158015611ffe573d6000803e3d6000fd5b505050506040513d601f19601f8201168201806040525081019061202291906129fd565b506000600260009054906101000a900473ffffffffffffffffffffffffffffffffffffffff1673ffffffffffffffffffffffffffffffffffffffff16636352211e87600001516040518263ffffffff1660e01b815260040161208491906132f3565b60206040518083038186803b15801561209c57600080fd5b505afa1580156120b0573d6000803e3d6000fd5b505050506040513d601f19601f820116820180604052508101906120d49190612892565b9050856020015173ffffffffffffffffffffffffffffffffffffffff1663a9059cbb828860e001516040518363ffffffff1660e01b8152600401612119929190612f7e565b602060405180830381600087803b15801561213357600080fd5b505af1158015612147573d6000803e3d6000fd5b505050506040513d601f19601f8201168201806040525081019061216b91906129fd565b5060008660e0018181525050856020015173ffffffffffffffffffffffffffffffffffffffff1663a9059cbb61219f610b1e565b8861010001516040518363ffffffff1660e01b81526004016121c2929190612f7e565b602060405180830381600087803b1580156121dc57600080fd5b505af11580156121f0573d6000803e3d6000fd5b505050506040513d601f19601f8201168201806040525081019061221491906129fd565b506000866101000181815250506000600960008860000151815260200190815260200160002060006101000a81548160ff0219169083151502179055507f0cfc355f1b1847a07d538a1e5e1659a0fd7d52735b8c30e9d90c75d404e7beb58a898d60008d60018c60c001518e60405161229498979695949392919061344f565b60405180910390a160008660c0018181525050506123a6565b600060028660c001516122c0919061369b565b9050856020015173ffffffffffffffffffffffffffffffffffffffff1663a9059cbb8c836040518363ffffffff1660e01b8152600401612301929190612f7e565b602060405180830381600087803b15801561231b57600080fd5b505af115801561232f573d6000803e3d6000fd5b505050506040513d601f19601f8201168201806040525081019061235391906129fd565b507f0cfc355f1b1847a07d538a1e5e1659a0fd7d52735b8c30e9d90c75d404e7beb58a898d848d6001878e604051612392989796959493929190613543565b60405180910390a1808660c0018181525050505b612410565b7f0cfc355f1b1847a07d538a1e5e1659a0fd7d52735b8c30e9d90c75d404e7beb589888c8860c001518c6000600a8a60ff168c6123e891906136cc565b6123f2919061369b565b8d604051612407989796959493929190613543565b60405180910390a15b84600860008b81526020019081526020016000206000820151816000015560208201518160010160006101000a81548173ffffffffffffffffffffffffffffffffffffffff021916908373ffffffffffffffffffffffffffffffffffffffff160217905550604082015181600201556060820151816003015560808201518160040160006101000a81548160ff021916908360ff16021790555060a08201518160040160016101000a81548173ffffffffffffffffffffffffffffffffffffffff021916908373ffffffffffffffffffffffffffffffffffffffff16021790555060c0820151816005015560e082015181600601556101008201518160070155610120820151816008015590505050505050505050505050565b600081600001549050919050565b600080600560008473ffffffffffffffffffffffffffffffffffffffff1673ffffffffffffffffffffffffffffffffffffffff16815260200190815260200160002090506125858161252a565b915061259081612656565b50919050565b60008085858585466040516020016125b2959493929190613007565b604051602081830303815290604052805190602001209050806040516020016125db9190612ed6565b60405160208183030381529060405280519060200120915050949350505050565b6000806000600a841161261a5760069250600391506001905061264f565b600a8411801561262b575060148411155b156126415760079250600291506001905061264e565b6008925060019150600190505b5b9193909250565b6001816000016000828254019250508190555050565b828054612678906137d9565b90600052602060002090601f01602090048101928261269a57600085556126e1565b82601f106126b357805160ff19168380011785556126e1565b828001600101855582156126e1579182015b828111156126e05782518255916020019190600101906126c5565b5b5090506126ee91906126f2565b5090565b5b8082111561270b5760008160009055506001016126f3565b5090565b600061272261271d846135ed565b6135c8565b90508281526020810184848401111561273a57600080fd5b612745848285613797565b509392505050565b60008135905061275c81613e81565b92915050565b60008151905061277181613e81565b92915050565b60008151905061278681613e98565b92915050565b60008135905061279b81613eaf565b92915050565b60008083601f8401126127b357600080fd5b8235905067ffffffffffffffff8111156127cc57600080fd5b6020830191508360018202830111156127e457600080fd5b9250929050565b600082601f8301126127fc57600080fd5b813561280c84826020860161270f565b91505092915050565b60008135905061282481613ec6565b92915050565b60008151905061283981613ec6565b92915050565b60008135905061284e81613edd565b92915050565b60008151905061286381613edd565b92915050565b60006020828403121561287b57600080fd5b60006128898482850161274d565b91505092915050565b6000602082840312156128a457600080fd5b60006128b284828501612762565b91505092915050565b600080604083850312156128ce57600080fd5b60006128dc8582860161274d565b925050602083013567ffffffffffffffff8111156128f957600080fd5b612905858286016127eb565b9150509250929050565b6000806040838503121561292257600080fd5b60006129308582860161274d565b925050602061294185828601612815565b9150509250929050565b600080600080600080600080610100898b03121561296857600080fd5b60006129768b828c0161274d565b98505060206129878b828c01612815565b97505060406129988b828c0161274d565b96505060606129a98b828c0161283f565b95505060806129ba8b828c0161283f565b94505060a06129cb8b828c0161278c565b93505060c06129dc8b828c0161278c565b92505060e06129ed8b828c0161274d565b9150509295985092959890939650565b600060208284031215612a0f57600080fd5b6000612a1d84828501612777565b91505092915050565b600060208284031215612a3857600080fd5b6000612a4684828501612815565b91505092915050565b600060208284031215612a6157600080fd5b6000612a6f8482850161282a565b91505092915050565b600080600060608486031215612a8d57600080fd5b6000612a9b86828701612815565b9350506020612aac8682870161278c565b9250506040612abd8682870161278c565b9150509250925092565b600080600080600060808688031215612adf57600080fd5b6000612aed88828901612815565b9550506020612afe88828901612815565b9450506040612b0f88828901612815565b935050606086013567ffffffffffffffff811115612b2c57600080fd5b612b38888289016127a1565b92509250509295509295909350565b600060208284031215612b5957600080fd5b6000612b6784828501612854565b91505092915050565b612b7981613726565b82525050565b612b8881613738565b82525050565b612b9781613744565b82525050565b612bae612ba982613744565b61383c565b82525050565b612bbd81613785565b82525050565b6000612bce8261361e565b612bd88185613629565b9350612be88185602086016137a6565b612bf181613902565b840191505092915050565b6000612c09601c8361363a565b9150612c1482613913565b601c82019050919050565b6000612c2c601183613629565b9150612c378261393c565b602082019050919050565b6000612c4f602683613629565b9150612c5a82613965565b604082019050919050565b6000612c72602483613629565b9150612c7d826139b4565b604082019050919050565b6000612c95602283613629565b9150612ca082613a03565b604082019050919050565b6000612cb8600983613629565b9150612cc382613a52565b602082019050919050565b6000612cdb602183613629565b9150612ce682613a7b565b604082019050919050565b6000612cfe602383613629565b9150612d0982613aca565b604082019050919050565b6000612d21602983613629565b9150612d2c82613b19565b604082019050919050565b6000612d44602283613629565b9150612d4f82613b68565b604082019050919050565b6000612d67602183613629565b9150612d7282613bb7565b604082019050919050565b6000612d8a602083613629565b9150612d9582613c06565b602082019050919050565b6000612dad603083613629565b9150612db882613c2f565b604082019050919050565b6000612dd0603083613629565b9150612ddb82613c7e565b604082019050919050565b6000612df3602983613629565b9150612dfe82613ccd565b604082019050919050565b6000612e16601d83613629565b9150612e2182613d1c565b602082019050919050565b6000612e39602283613629565b9150612e4482613d45565b604082019050919050565b6000612e5c603e83613629565b9150612e6782613d94565b604082019050919050565b6000612e7f602683613629565b9150612e8a82613de3565b604082019050919050565b6000612ea2602b83613629565b9150612ead82613e32565b604082019050919050565b612ec18161376e565b82525050565b612ed081613778565b82525050565b6000612ee182612bfc565b9150612eed8284612b9d565b60208201915081905092915050565b6000602082019050612f116000830184612b70565b92915050565b6000606082019050612f2c6000830186612b70565b612f396020830185612b70565b612f466040830184612eb8565b949350505050565b6000604082019050612f636000830185612b70565b8181036020830152612f758184612bc3565b90509392505050565b6000604082019050612f936000830185612b70565b612fa06020830184612eb8565b9392505050565b6000602082019050612fbc6000830184612b7f565b92915050565b6000608082019050612fd76000830187612b8e565b612fe46020830186612ec7565b612ff16040830185612b8e565b612ffe6060830184612b8e565b95945050505050565b600060c082019050818103600083015261302081612c1f565b905061302f6020830188612eb8565b61303c6040830187612b70565b6130496060830186612ec7565b6130566080830185612eb8565b61306360a0830184612eb8565b9695505050505050565b6000602082019050818103600083015261308681612c42565b9050919050565b600060208201905081810360008301526130a681612c65565b9050919050565b600060208201905081810360008301526130c681612c88565b9050919050565b600060c08201905081810360008301526130e681612cab565b90506130f56020830188612eb8565b6131026040830187612eb8565b61310f6060830186612eb8565b61311c6080830185612eb8565b61312960a0830184612eb8565b9695505050505050565b6000602082019050818103600083015261314c81612cce565b9050919050565b6000602082019050818103600083015261316c81612cf1565b9050919050565b6000602082019050818103600083015261318c81612d14565b9050919050565b600060208201905081810360008301526131ac81612d37565b9050919050565b600060208201905081810360008301526131cc81612d5a565b9050919050565b600060208201905081810360008301526131ec81612d7d565b9050919050565b6000602082019050818103600083015261320c81612da0565b9050919050565b6000602082019050818103600083015261322c81612dc3565b9050919050565b6000602082019050818103600083015261324c81612de6565b9050919050565b6000602082019050818103600083015261326c81612e09565b9050919050565b6000602082019050818103600083015261328c81612e2c565b9050919050565b600060208201905081810360008301526132ac81612e4f565b9050919050565b600060208201905081810360008301526132cc81612e72565b9050919050565b600060208201905081810360008301526132ec81612e95565b9050919050565b60006020820190506133086000830184612eb8565b92915050565b60006040820190506133236000830185612eb8565b6133306020830184612b70565b9392505050565b60006101408201905061334d600083018d612eb8565b61335a602083018c612b70565b613367604083018b612eb8565b613374606083018a612eb8565b6133816080830189612ec7565b61338e60a0830188612b70565b61339b60c0830187612eb8565b6133a860e0830186612eb8565b6133b6610100830185612eb8565b6133c4610120830184612eb8565b9b9a5050505050505050505050565b60006060820190506133e86000830186612eb8565b6133f56020830185612b8e565b6134026040830184612b70565b949350505050565b600060808201905061341f6000830187612eb8565b61342c6020830186612b8e565b6134396040830185612eb8565b6134466060830184612eb8565b95945050505050565b600061010082019050613465600083018b612eb8565b613472602083018a612eb8565b61347f6040830189612b70565b61348c6060830188612bb4565b6134996080830187612b8e565b6134a660a0830186612b7f565b6134b360c0830185612eb8565b81810360e08301526134c58184612bc3565b90509998505050505050505050565b600060e0820190506134e9600083018a612eb8565b6134f66020830189612eb8565b6135036040830188612b70565b6135106060830187612eb8565b61351d6080830186612b70565b61352a60a0830185612ec7565b61353760c0830184612b70565b98975050505050505050565b600061010082019050613559600083018b612eb8565b613566602083018a612eb8565b6135736040830189612b70565b6135806060830188612eb8565b61358d6080830187612b8e565b61359a60a0830186612b7f565b6135a760c0830185612eb8565b81810360e08301526135b98184612bc3565b90509998505050505050505050565b60006135d26135e3565b90506135de828261380b565b919050565b6000604051905090565b600067ffffffffffffffff821115613608576136076138d3565b5b61361182613902565b9050602081019050919050565b600081519050919050565b600082825260208201905092915050565b600081905092915050565b60006136508261376e565b915061365b8361376e565b9250827fffffffffffffffffffffffffffffffffffffffffffffffffffffffffffffffff038211156136905761368f613846565b5b828201905092915050565b60006136a68261376e565b91506136b18361376e565b9250826136c1576136c0613875565b5b828204905092915050565b60006136d78261376e565b91506136e28361376e565b9250817fffffffffffffffffffffffffffffffffffffffffffffffffffffffffffffffff048311821515161561371b5761371a613846565b5b828202905092915050565b60006137318261374e565b9050919050565b60008115159050919050565b6000819050919050565b600073ffffffffffffffffffffffffffffffffffffffff82169050919050565b6000819050919050565b600060ff82169050919050565b60006137908261376e565b9050919050565b82818337600083830152505050565b60005b838110156137c45780820151818401526020810190506137a9565b838111156137d3576000848401525b50505050565b600060028204905060018216806137f157607f821691505b60208210811415613805576138046138a4565b5b50919050565b61381482613902565b810181811067ffffffffffffffff82111715613833576138326138d3565b5b80604052505050565b6000819050919050565b7f4e487b7100000000000000000000000000000000000000000000000000000000600052601160045260246000fd5b7f4e487b7100000000000000000000000000000000000000000000000000000000600052601260045260246000fd5b7f4e487b7100000000000000000000000000000000000000000000000000000000600052602260045260246000fd5b7f4e487b7100000000000000000000000000000000000000000000000000000000600052604160045260246000fd5b6000601f19601f8301169050919050565b7f19457468657265756d205369676e6564204d6573736167653a0a333200000000600082015250565b7f6e756c6c732e6f6e6c696e652d706c6179000000000000000000000000000000600082015250565b7f4f776e61626c653a206e6577206f776e657220697320746865207a65726f206160008201527f6464726573730000000000000000000000000000000000000000000000000000602082015250565b7f4e756c6c7352616e6b4d616e616765722f54686520706574206973206265617460008201527f696e672e00000000000000000000000000000000000000000000000000000000602082015250565b7f4e756c6c7352616e6b4d616e616765722f556e737570706f7274656420746f6b60008201527f656e000000000000000000000000000000000000000000000000000000000000602082015250565b7f6e756c6c732e6567670000000000000000000000000000000000000000000000600082015250565b7f4e756c6c7352616e6b4d616e616765722f496e76616c6964206164647265737360008201527f2e00000000000000000000000000000000000000000000000000000000000000602082015250565b7f4e756c6c7352616e6b4d616e616765722f556e737570706f7274656420746f6b60008201527f656e2e0000000000000000000000000000000000000000000000000000000000602082015250565b7f4e756c6c7352616e6b4d616e616765722f4974656d207665726966696361746960008201527f6f6e206661696c65640000000000000000000000000000000000000000000000602082015250565b7f4e756c6c7352616e6b4d616e616765722f50657420696420697320696c6c656760008201527f616c000000000000000000000000000000000000000000000000000000000000602082015250565b7f4e756c6c734f70656e45676756312f4973206e6f742066726f6d2070726f787960008201527f2e00000000000000000000000000000000000000000000000000000000000000602082015250565b7f4f776e61626c653a2063616c6c6572206973206e6f7420746865206f776e6572600082015250565b7f4e756c6c7352616e6b4d616e616765722f5369676e617475726520766572696660008201527f69636174696f6e206661696c7572652e00000000000000000000000000000000602082015250565b7f4e756c6c7352616e6b4d616e616765722f5468652064617461206f627461696e60008201527f6564206279204856206973206e756c6c00000000000000000000000000000000602082015250565b7f4e756c6c7352616e6b4d616e616765722f5468652052616e6b20626f6e75732060008201527f706f6f6c20697320300000000000000000000000000000000000000000000000602082015250565b7f4e756c6c7352616e6b4d616e616765722f506574732061742072657374000000600082015250565b7f4e756c6c7352616e6b4d616e616765723a206578706972656420646561646c6960008201527f6e65000000000000000000000000000000000000000000000000000000000000602082015250565b7f4e756c6c7352616e6b4d616e616765722f5065747320646f206e6f742068617660008201527f6520746865206162696c69747920746f206f70656e207468652052616e6b0000602082015250565b7f4e756c6c7352616e6b4d616e616765722f556e737570706f72746564206d756c60008201527f7469706c652e0000000000000000000000000000000000000000000000000000602082015250565b7f4e756c6c7352616e6b4d616e616765722f446f206e6f7420726570656174206360008201527f6f6e73756d7074696f6e2e000000000000000000000000000000000000000000602082015250565b613e8a81613726565b8114613e9557600080fd5b50565b613ea181613738565b8114613eac57600080fd5b50565b613eb881613744565b8114613ec357600080fd5b50565b613ecf8161376e565b8114613eda57600080fd5b50565b613ee681613778565b8114613ef157600080fd5b5056fea26469706673582212204553ee3edb944827a26ceadb58ebfb282eb4f2486d720da36db92085e646009a64736f6c63430008040033",
  "linkReferences": {},
  "deployedLinkReferences": {}
}